{
  "transactions": [
    {
      "hash": "0xd701603c4fe1c93b7749f8ebf508e49cd11de73ad31f3c1a3d1427cf5fe42da4",
      "transactionType": "CALL",
      "contractName": null,
      "contractAddress": "0x27325be0cf6c908c282b64565ba05b8c7d0642de",
      "function": "setTokenWhitelist(address,bool)",
      "arguments": [
        "0x7B6CaAd71a1618dfb66392be6f8Cb71010349DfF",
        "true"
      ],
      "transaction": {
        "from": "0xf977f34db8a986a0a9edec3e744092c715ef793c",
        "to": "0x27325be0cf6c908c282b64565ba05b8c7d0642de",
        "gas": "0x22f0e",
        "value": "0x0",
        "input": "0xc9bcc97e0000000000000000000000007b6caad71a1618dfb66392be6f8cb71010349dff0000000000000000000000000000000000000000000000000000000000000001",
        "nonce": "0x40",
        "chainId": "0x14a34"
      },
      "additionalContracts": [],
      "isFixedGasLimit": false
    },
    {
      "hash": "0x7ab5d63609ecca2ef96138afcc14f76042954627016f0b2741898c338788dbef",
      "transactionType": "CALL",
      "contractName": null,
      "contractAddress": "0x27325be0cf6c908c282b64565ba05b8c7d0642de",
      "function": "setTokenWhitelist(address,bool)",
      "arguments": [
        "0x4Fd923620866Ee5377Cb072Fd8A2C449a397b264",
        "true"
      ],
      "transaction": {
        "from": "0xf977f34db8a986a0a9edec3e744092c715ef793c",
        "to": "0x27325be0cf6c908c282b64565ba05b8c7d0642de",
        "gas": "0x1b3bb",
        "value": "0x0",
        "input": "0xc9bcc97e0000000000000000000000004fd923620866ee5377cb072fd8a2c449a397b2640000000000000000000000000000000000000000000000000000000000000001",
        "nonce": "0x41",
        "chainId": "0x14a34"
      },
      "additionalContracts": [],
      "isFixedGasLimit": false
    },
    {
      "hash": "0xeccf3103bf3a8b871eeccefd84d1a939463520568672169939076c363f634685",
      "transactionType": "CALL",
      "contractName": null,
      "contractAddress": "0x27325be0cf6c908c282b64565ba05b8c7d0642de",
      "function": "setTokenWhitelist(address,bool)",
      "arguments": [
        "0xf988Aa533C303c480D366081D265709549a765d0",
        "true"
      ],
      "transaction": {
        "from": "0xf977f34db8a986a0a9edec3e744092c715ef793c",
        "to": "0x27325be0cf6c908c282b64565ba05b8c7d0642de",
        "gas": "0x1b3bb",
        "value": "0x0",
        "input": "0xc9bcc97e000000000000000000000000f988aa533c303c480d366081d265709549a765d00000000000000000000000000000000000000000000000000000000000000001",
        "nonce": "0x42",
        "chainId": "0x14a34"
      },
      "additionalContracts": [],
      "isFixedGasLimit": false
    },
    {
      "hash": "0x8bdf0b7ad946e81e289b482ffebdb6b9a8a4f84d7589175ebe4fcf1d31413ccf",
      "transactionType": "CALL",
      "contractName": null,
      "contractAddress": "0x27325be0cf6c908c282b64565ba05b8c7d0642de",
      "function": "setTokenWhitelist(address,bool)",
      "arguments": [
        "0x6831062bb9c1FDFcB5B4618cf1462041178B8197",
        "true"
      ],
      "transaction": {
        "from": "0xf977f34db8a986a0a9edec3e744092c715ef793c",
        "to": "0x27325be0cf6c908c282b64565ba05b8c7d0642de",
        "gas": "0x1b3bb",
        "value": "0x0",
        "input": "0xc9bcc97e0000000000000000000000006831062bb9c1fdfcb5b4618cf1462041178b81970000000000000000000000000000000000000000000000000000000000000001",
        "nonce": "0x43",
        "chainId": "0x14a34"
      },
      "additionalContracts": [],
      "isFixedGasLimit": false
    },
    {
      "hash": "0x8260aa24ec2de33a615b3ef6a375ce5c70ee945686b12b16a68e6580a1812c4a",
      "transactionType": "CALL",
      "contractName": null,
      "contractAddress": "0x27325be0cf6c908c282b64565ba05b8c7d0642de",
      "function": "setTokenWhitelist(address,bool)",
      "arguments": [
        "0x34CEf345900425A72C1421d47EBaDD78d7DC8772",
        "true"
      ],
      "transaction": {
        "from": "0xf977f34db8a986a0a9edec3e744092c715ef793c",
        "to": "0x27325be0cf6c908c282b64565ba05b8c7d0642de",
        "gas": "0x1b3bb",
        "value": "0x0",
        "input": "0xc9bcc97e00000000000000000000000034cef345900425a72c1421d47ebadd78d7dc87720000000000000000000000000000000000000000000000000000000000000001",
        "nonce": "0x44",
        "chainId": "0x14a34"
      },
      "additionalContracts": [],
      "isFixedGasLimit": false
    },
    {
      "hash": "0x4e389059974cfb331f6f08d51ddfd13cbed68d1f09bb0a3f4f6261774fb57294",
      "transactionType": "CALL",
      "contractName": null,
      "contractAddress": "0x27325be0cf6c908c282b64565ba05b8c7d0642de",
      "function": "setTokenWhitelist(address,bool)",
      "arguments": [
        "0x279C4D0AD3f8a74fA266d5d75F87dE93Da7C9268",
        "true"
      ],
      "transaction": {
        "from": "0xf977f34db8a986a0a9edec3e744092c715ef793c",
        "to": "0x27325be0cf6c908c282b64565ba05b8c7d0642de",
        "gas": "0x1b3bb",
        "value": "0x0",
        "input": "0xc9bcc97e000000000000000000000000279c4d0ad3f8a74fa266d5d75f87de93da7c92680000000000000000000000000000000000000000000000000000000000000001",
        "nonce": "0x45",
        "chainId": "0x14a34"
      },
      "additionalContracts": [],
      "isFixedGasLimit": false
    },
    {
      "hash": "0xc83d669d289f79d4c2e5d631ff1f9de43692aa6168cd6a87bd1f252fd262e2e6",
      "transactionType": "CALL",
      "contractName": null,
      "contractAddress": "0x27325be0cf6c908c282b64565ba05b8c7d0642de",
      "function": "setTokenWhitelist(address,bool)",
      "arguments": [
        "0x616533dFEe0D30085426AB025de2BEE9F981b1b1",
        "true"
      ],
      "transaction": {
        "from": "0xf977f34db8a986a0a9edec3e744092c715ef793c",
        "to": "0x27325be0cf6c908c282b64565ba05b8c7d0642de",
        "gas": "0x1b3bb",
        "value": "0x0",
        "input": "0xc9bcc97e000000000000000000000000616533dfee0d30085426ab025de2bee9f981b1b10000000000000000000000000000000000000000000000000000000000000001",
        "nonce": "0x46",
        "chainId": "0x14a34"
      },
      "additionalContracts": [],
      "isFixedGasLimit": false
    },
    {
      "hash": "0x5c0909761d67ca8d7161142a61d68be51f7da3baf8bea4d7dbbf22eed788ad0d",
      "transactionType": "CALL",
      "contractName": null,
      "contractAddress": "0x27325be0cf6c908c282b64565ba05b8c7d0642de",
      "function": "setTokenWhitelist(address,bool)",
      "arguments": [
        "0x60a08d78e8F179588CB7310fde76195e29894fEd",
        "true"
      ],
      "transaction": {
        "from": "0xf977f34db8a986a0a9edec3e744092c715ef793c",
        "to": "0x27325be0cf6c908c282b64565ba05b8c7d0642de",
        "gas": "0x1b3bb",
        "value": "0x0",
        "input": "0xc9bcc97e00000000000000000000000060a08d78e8f179588cb7310fde76195e29894fed0000000000000000000000000000000000000000000000000000000000000001",
        "nonce": "0x47",
        "chainId": "0x14a34"
      },
      "additionalContracts": [],
      "isFixedGasLimit": false
    },
    {
      "hash": "0x65e0e67538edf4db1be1757757b4191ad428cf250c5844db3042ea224c9cb102",
      "transactionType": "CALL",
      "contractName": null,
      "contractAddress": "0x27325be0cf6c908c282b64565ba05b8c7d0642de",
      "function": "setTokenWhitelist(address,bool)",
      "arguments": [
        "0x5c653aF4Ae1d25d0a7D01c3191A049c29932DF26",
        "true"
      ],
      "transaction": {
        "from": "0xf977f34db8a986a0a9edec3e744092c715ef793c",
        "to": "0x27325be0cf6c908c282b64565ba05b8c7d0642de",
        "gas": "0x1b3bb",
        "value": "0x0",
        "input": "0xc9bcc97e0000000000000000000000005c653af4ae1d25d0a7d01c3191a049c29932df260000000000000000000000000000000000000000000000000000000000000001",
        "nonce": "0x48",
        "chainId": "0x14a34"
      },
      "additionalContracts": [],
      "isFixedGasLimit": false
    },
    {
      "hash": "0xed12efef66b3b2f66dbec8f8df42cfa1833669536e4ea05f15db1e027dd71d8c",
      "transactionType": "CALL",
      "contractName": null,
      "contractAddress": "0x27325be0cf6c908c282b64565ba05b8c7d0642de",
      "function": "setTokenWhitelist(address,bool)",
      "arguments": [
        "0xda0851Ed5751E6400B0622156923A172F0810C2F",
        "true"
      ],
      "transaction": {
        "from": "0xf977f34db8a986a0a9edec3e744092c715ef793c",
        "to": "0x27325be0cf6c908c282b64565ba05b8c7d0642de",
        "gas": "0x1b3bb",
        "value": "0x0",
        "input": "0xc9bcc97e000000000000000000000000da0851ed5751e6400b0622156923a172f0810c2f0000000000000000000000000000000000000000000000000000000000000001",
        "nonce": "0x49",
        "chainId": "0x14a34"
      },
      "additionalContracts": [],
      "isFixedGasLimit": false
    }
  ],
  "receipts": [
    {
      "status": "0x1",
      "cumulativeGasUsed": "0x3cc7b0",
      "logs": [
        {
          "address": "0x27325be0cf6c908c282b64565ba05b8c7d0642de",
          "topics": [
            "0xef81a9943b96c8df4ef243401c9bf5159146166211356898b52d382086168d92",
            "0x0000000000000000000000007b6caad71a1618dfb66392be6f8cb71010349dff"
          ],
          "data": "0x0000000000000000000000000000000000000000000000000000000000000001",
          "blockHash": "0x7c02247edbef1383407175d2a27e1a9b383e14f0ef4505b0f702f2993d16b292",
          "blockNumber": "0x1f374e2",
          "blockTimestamp": "0x68fa48a4",
          "transactionHash": "0xd701603c4fe1c93b7749f8ebf508e49cd11de73ad31f3c1a3d1427cf5fe42da4",
          "transactionIndex": "0x11",
          "logIndex": "0x7d",
          "removed": false
        }
      ],
      "logsBloom": "0x00000000000000000000000000000000000000000000000002200000000000000000000000000000000000000000000000000000000000000000000000000000000000000000000000000000000000000800000000000000000000000000000002000000000000000000008000000000000000000000000000000000000004000000000000000000000000000000040000000000000000000000000000000000000000000000000000000000000000000000000000000000000000000000000000000000000000000000000040000000000000000000000000000000000000000000000000000000000100000000000000000000000000000000000000000000",
      "type": "0x2",
      "transactionHash": "0xd701603c4fe1c93b7749f8ebf508e49cd11de73ad31f3c1a3d1427cf5fe42da4",
      "transactionIndex": "0x11",
      "blockHash": "0x7c02247edbef1383407175d2a27e1a9b383e14f0ef4505b0f702f2993d16b292",
      "blockNumber": "0x1f374e2",
      "gasUsed": "0x17e43",
      "effectiveGasPrice": "0xf4282",
      "from": "0xf977f34db8a986a0a9edec3e744092c715ef793c",
      "to": "0x27325be0cf6c908c282b64565ba05b8c7d0642de",
      "contractAddress": null,
      "l1BaseFeeScalar": "0x44d",
      "l1BlobBaseFee": "0x1",
      "l1BlobBaseFeeScalar": "0xa118b",
      "l1Fee": "0x55",
      "l1GasPrice": "0xb",
      "l1GasUsed": "0x640"
    },
    {
      "status": "0x1",
      "cumulativeGasUsed": "0x3e0327",
      "logs": [
        {
          "address": "0x27325be0cf6c908c282b64565ba05b8c7d0642de",
          "topics": [
            "0xef81a9943b96c8df4ef243401c9bf5159146166211356898b52d382086168d92",
            "0x0000000000000000000000004fd923620866ee5377cb072fd8a2c449a397b264"
          ],
          "data": "0x0000000000000000000000000000000000000000000000000000000000000001",
          "blockHash": "0x7c02247edbef1383407175d2a27e1a9b383e14f0ef4505b0f702f2993d16b292",
          "blockNumber": "0x1f374e2",
          "blockTimestamp": "0x68fa48a4",
          "transactionHash": "0x7ab5d63609ecca2ef96138afcc14f76042954627016f0b2741898c338788dbef",
          "transactionIndex": "0x12",
          "logIndex": "0x7e",
          "removed": false
        }
      ],
      "logsBloom": "0x00000000000000000000000000000000000000000000000000000000000000000000000000000000000000000000000000000000000000000000000000000000000000000000000000000000000000000800000000000000000000000000000002000000002000000000008000000000000000000000000000000000000004000000000000000000000000000000040000000000000000000000000000000000000000000000000000000000000000000000000000000000000000000000000000000000000000000000000000000000000000000000000000000000000000000000000000000000000300000002000000000000000000000000000000000000",
      "type": "0x2",
      "transactionHash": "0x7ab5d63609ecca2ef96138afcc14f76042954627016f0b2741898c338788dbef",
      "transactionIndex": "0x12",
      "blockHash": "0x7c02247edbef1383407175d2a27e1a9b383e14f0ef4505b0f702f2993d16b292",
      "blockNumber": "0x1f374e2",
      "gasUsed": "0x13b77",
      "effectiveGasPrice": "0xf4282",
      "from": "0xf977f34db8a986a0a9edec3e744092c715ef793c",
      "to": "0x27325be0cf6c908c282b64565ba05b8c7d0642de",
      "contractAddress": null,
      "l1BaseFeeScalar": "0x44d",
      "l1BlobBaseFee": "0x1",
      "l1BlobBaseFeeScalar": "0xa118b",
      "l1Fee": "0x55",
      "l1GasPrice": "0xb",
      "l1GasUsed": "0x640"
    },
    {
      "status": "0x1",
      "cumulativeGasUsed": "0x3f3e9e",
      "logs": [
        {
          "address": "0x27325be0cf6c908c282b64565ba05b8c7d0642de",
          "topics": [
            "0xef81a9943b96c8df4ef243401c9bf5159146166211356898b52d382086168d92",
            "0x000000000000000000000000f988aa533c303c480d366081d265709549a765d0"
          ],
          "data": "0x0000000000000000000000000000000000000000000000000000000000000001",
          "blockHash": "0x7c02247edbef1383407175d2a27e1a9b383e14f0ef4505b0f702f2993d16b292",
          "blockNumber": "0x1f374e2",
          "blockTimestamp": "0x68fa48a4",
          "transactionHash": "0xeccf3103bf3a8b871eeccefd84d1a939463520568672169939076c363f634685",
          "transactionIndex": "0x13",
          "logIndex": "0x7f",
          "removed": false
        }
      ],
      "logsBloom": "0x00000000000000000000000000000000000000000000000000000000000000000000000000000000000000000000000000000000000000000000000000000000000000000000000000100000000000000800000000000000000000000000000002000000000000000000008000000000000000000000000000000000000004000000000000000000000000000000040000000000000000000000000000000000000000000000000000000000000000000000000010020000000000000000000000000000000000000000000000000000000000000000000000000000000000000000000000000000000100000000000000000000000000000000000000000000",
      "type": "0x2",
      "transactionHash": "0xeccf3103bf3a8b871eeccefd84d1a939463520568672169939076c363f634685",
      "transactionIndex": "0x13",
      "blockHash": "0x7c02247edbef1383407175d2a27e1a9b383e14f0ef4505b0f702f2993d16b292",
      "blockNumber": "0x1f374e2",
      "gasUsed": "0x13b77",
      "effectiveGasPrice": "0xf4282",
      "from": "0xf977f34db8a986a0a9edec3e744092c715ef793c",
      "to": "0x27325be0cf6c908c282b64565ba05b8c7d0642de",
      "contractAddress": null,
      "l1BaseFeeScalar": "0x44d",
      "l1BlobBaseFee": "0x1",
      "l1BlobBaseFeeScalar": "0xa118b",
      "l1Fee": "0x55",
      "l1GasPrice": "0xb",
      "l1GasUsed": "0x640"
    },
    {
      "status": "0x1",
      "cumulativeGasUsed": "0xde1db",
      "logs": [
        {
          "address": "0x27325be0cf6c908c282b64565ba05b8c7d0642de",
          "topics": [
            "0xef81a9943b96c8df4ef243401c9bf5159146166211356898b52d382086168d92",
            "0x0000000000000000000000006831062bb9c1fdfcb5b4618cf1462041178b8197"
          ],
          "data": "0x0000000000000000000000000000000000000000000000000000000000000001",
          "blockHash": "0x563654774767ee3c9ccea840f4008e95e38e59059fd4de96276fce931ec84122",
          "blockNumber": "0x1f374e3",
          "blockTimestamp": "0x68fa48a6",
          "transactionHash": "0x8bdf0b7ad946e81e289b482ffebdb6b9a8a4f84d7589175ebe4fcf1d31413ccf",
          "transactionIndex": "0x4",
          "logIndex": "0x2a",
          "removed": false
        }
      ],
      "logsBloom": "0x00000000000000000000000000000000000000000000000000000000000000000000000000000000000000000000000000000000000000000000000000000000000000000000000000000000000000000800000000000000000000000000000002000000000000000000008000000000000000000000000000080000000004000000000000000000000000000000040000000000000000000000000000000000000000000000000000000000000000000000000000000000000000000000000000000000000000000000000000000000000000000000000000000000000000000000000000100100000100000000000000000000000000000000000000000000",
      "type": "0x2",
      "transactionHash": "0x8bdf0b7ad946e81e289b482ffebdb6b9a8a4f84d7589175ebe4fcf1d31413ccf",
      "transactionIndex": "0x4",
      "blockHash": "0x563654774767ee3c9ccea840f4008e95e38e59059fd4de96276fce931ec84122",
      "blockNumber": "0x1f374e3",
      "gasUsed": "0x13b77",
      "effectiveGasPrice": "0xf4282",
      "from": "0xf977f34db8a986a0a9edec3e744092c715ef793c",
      "to": "0x27325be0cf6c908c282b64565ba05b8c7d0642de",
      "contractAddress": null,
      "l1BaseFeeScalar": "0x44d",
      "l1BlobBaseFee": "0x1",
      "l1BlobBaseFeeScalar": "0xa118b",
      "l1Fee": "0x55",
      "l1GasPrice": "0xb",
      "l1GasUsed": "0x640"
    },
    {
      "status": "0x1",
      "cumulativeGasUsed": "0xf1d52",
      "logs": [
        {
          "address": "0x27325be0cf6c908c282b64565ba05b8c7d0642de",
          "topics": [
            "0xef81a9943b96c8df4ef243401c9bf5159146166211356898b52d382086168d92",
            "0x00000000000000000000000034cef345900425a72c1421d47ebadd78d7dc8772"
          ],
          "data": "0x0000000000000000000000000000000000000000000000000000000000000001",
          "blockHash": "0x563654774767ee3c9ccea840f4008e95e38e59059fd4de96276fce931ec84122",
          "blockNumber": "0x1f374e3",
          "blockTimestamp": "0x68fa48a6",
          "transactionHash": "0x8260aa24ec2de33a615b3ef6a375ce5c70ee945686b12b16a68e6580a1812c4a",
          "transactionIndex": "0x5",
          "logIndex": "0x2b",
          "removed": false
        }
      ],
      "logsBloom": "0x00000000000000000000000000000000000000000000200000000000000000000000000000000000000000000000000000000000000000000000000000000000000000000000000000000000000000000800000000000000000000000000000002000000000000000000008000000000000000000000000000000000000004000000000000000000000000000000840000000000000000000000000000000000000000000000000000000000000000000000000000000000000000000000000000000000000000000000000000000000000000000000000000000000000040000000000000000000000100000000000000000000000000000000000000000000",
      "type": "0x2",
      "transactionHash": "0x8260aa24ec2de33a615b3ef6a375ce5c70ee945686b12b16a68e6580a1812c4a",
      "transactionIndex": "0x5",
      "blockHash": "0x563654774767ee3c9ccea840f4008e95e38e59059fd4de96276fce931ec84122",
      "blockNumber": "0x1f374e3",
      "gasUsed": "0x13b77",
      "effectiveGasPrice": "0xf4282",
      "from": "0xf977f34db8a986a0a9edec3e744092c715ef793c",
      "to": "0x27325be0cf6c908c282b64565ba05b8c7d0642de",
      "contractAddress": null,
      "l1BaseFeeScalar": "0x44d",
      "l1BlobBaseFee": "0x1",
      "l1BlobBaseFeeScalar": "0xa118b",
      "l1Fee": "0x55",
      "l1GasPrice": "0xb",
      "l1GasUsed": "0x640"
    },
    {
      "status": "0x1",
      "cumulativeGasUsed": "0x1058c9",
      "logs": [
        {
          "address": "0x27325be0cf6c908c282b64565ba05b8c7d0642de",
          "topics": [
            "0xef81a9943b96c8df4ef243401c9bf5159146166211356898b52d382086168d92",
            "0x000000000000000000000000279c4d0ad3f8a74fa266d5d75f87de93da7c9268"
          ],
          "data": "0x0000000000000000000000000000000000000000000000000000000000000001",
          "blockHash": "0x563654774767ee3c9ccea840f4008e95e38e59059fd4de96276fce931ec84122",
          "blockNumber": "0x1f374e3",
          "blockTimestamp": "0x68fa48a6",
          "transactionHash": "0x4e389059974cfb331f6f08d51ddfd13cbed68d1f09bb0a3f4f6261774fb57294",
          "transactionIndex": "0x6",
          "logIndex": "0x2c",
          "removed": false
        }
      ],
      "logsBloom": "0x00000000000000000000000000000000000000000000000000000000000000000000000000000000000000000000000000000000000000000000000000000000000002000000000000000000000000000800000000000000000000000000000002000000000000000000008000000000000000000000000000000000000004000000000000400000000000000000040000000000000000000000000000000000000000000000000000000000000000000000000000000000000000000000000000000000000000000000000000000000000000000000000000000000000000000000000000000000000100002000000000000000000000000000000000000000",
      "type": "0x2",
      "transactionHash": "0x4e389059974cfb331f6f08d51ddfd13cbed68d1f09bb0a3f4f6261774fb57294",
      "transactionIndex": "0x6",
      "blockHash": "0x563654774767ee3c9ccea840f4008e95e38e59059fd4de96276fce931ec84122",
      "blockNumber": "0x1f374e3",
      "gasUsed": "0x13b77",
      "effectiveGasPrice": "0xf4282",
      "from": "0xf977f34db8a986a0a9edec3e744092c715ef793c",
      "to": "0x27325be0cf6c908c282b64565ba05b8c7d0642de",
      "contractAddress": null,
      "l1BaseFeeScalar": "0x44d",
      "l1BlobBaseFee": "0x1",
      "l1BlobBaseFeeScalar": "0xa118b",
      "l1Fee": "0x55",
      "l1GasPrice": "0xb",
      "l1GasUsed": "0x640"
    },
    {
      "status": "0x1",
      "cumulativeGasUsed": "0x119440",
      "logs": [
        {
          "address": "0x27325be0cf6c908c282b64565ba05b8c7d0642de",
          "topics": [
            "0xef81a9943b96c8df4ef243401c9bf5159146166211356898b52d382086168d92",
            "0x000000000000000000000000616533dfee0d30085426ab025de2bee9f981b1b1"
          ],
          "data": "0x0000000000000000000000000000000000000000000000000000000000000001",
          "blockHash": "0x563654774767ee3c9ccea840f4008e95e38e59059fd4de96276fce931ec84122",
          "blockNumber": "0x1f374e3",
          "blockTimestamp": "0x68fa48a6",
          "transactionHash": "0xc83d669d289f79d4c2e5d631ff1f9de43692aa6168cd6a87bd1f252fd262e2e6",
          "transactionIndex": "0x7",
          "logIndex": "0x2d",
          "removed": false
        }
      ],
      "logsBloom": "0x00000000000000000000000000000000000000000000000000000000000000000000000000000000000000000000000000000000000000000000000000000000000000000000000000000000000000000800000000000000000000000000000002000000000000000000008000000000000000000000000000000000000004000000000000000000000000000000040000000000000000000000000000000000000000000010000000000000000000000000000000000000000000000000000000000000000000000000000010000000000000000000000008000000000000000000000000000000000100000000000000000000000000000000000000000000",
      "type": "0x2",
      "transactionHash": "0xc83d669d289f79d4c2e5d631ff1f9de43692aa6168cd6a87bd1f252fd262e2e6",
      "transactionIndex": "0x7",
      "blockHash": "0x563654774767ee3c9ccea840f4008e95e38e59059fd4de96276fce931ec84122",
      "blockNumber": "0x1f374e3",
      "gasUsed": "0x13b77",
      "effectiveGasPrice": "0xf4282",
      "from": "0xf977f34db8a986a0a9edec3e744092c715ef793c",
      "to": "0x27325be0cf6c908c282b64565ba05b8c7d0642de",
      "contractAddress": null,
      "l1BaseFeeScalar": "0x44d",
      "l1BlobBaseFee": "0x1",
      "l1BlobBaseFeeScalar": "0xa118b",
      "l1Fee": "0x55",
      "l1GasPrice": "0xb",
      "l1GasUsed": "0x640"
    },
    {
      "status": "0x1",
      "cumulativeGasUsed": "0x12cfb7",
      "logs": [
        {
          "address": "0x27325be0cf6c908c282b64565ba05b8c7d0642de",
          "topics": [
            "0xef81a9943b96c8df4ef243401c9bf5159146166211356898b52d382086168d92",
            "0x00000000000000000000000060a08d78e8f179588cb7310fde76195e29894fed"
          ],
          "data": "0x0000000000000000000000000000000000000000000000000000000000000001",
          "blockHash": "0x563654774767ee3c9ccea840f4008e95e38e59059fd4de96276fce931ec84122",
          "blockNumber": "0x1f374e3",
          "blockTimestamp": "0x68fa48a6",
          "transactionHash": "0x5c0909761d67ca8d7161142a61d68be51f7da3baf8bea4d7dbbf22eed788ad0d",
          "transactionIndex": "0x8",
          "logIndex": "0x2e",
          "removed": false
        }
      ],
      "logsBloom": "0x00000000000000000000000000000000000000004000000000000000000000000000000000000000000000000000000000000000000000000000000000000000000000000000000000000000000000000800000000000000000000000000000002000000000000000000008000000000000000000000000000000000000004000000000000000000000000000000040000000000000000000000000000000000000000000000000000010000000000000008000000000000000000000000000000000000000000000000000000000000000000000000000000000000000000000000000000000000000100000000000000000000000000000000000000000000",
      "type": "0x2",
      "transactionHash": "0x5c0909761d67ca8d7161142a61d68be51f7da3baf8bea4d7dbbf22eed788ad0d",
      "transactionIndex": "0x8",
      "blockHash": "0x563654774767ee3c9ccea840f4008e95e38e59059fd4de96276fce931ec84122",
      "blockNumber": "0x1f374e3",
      "gasUsed": "0x13b77",
      "effectiveGasPrice": "0xf4282",
      "from": "0xf977f34db8a986a0a9edec3e744092c715ef793c",
      "to": "0x27325be0cf6c908c282b64565ba05b8c7d0642de",
      "contractAddress": null,
      "l1BaseFeeScalar": "0x44d",
      "l1BlobBaseFee": "0x1",
      "l1BlobBaseFeeScalar": "0xa118b",
      "l1Fee": "0x55",
      "l1GasPrice": "0xb",
      "l1GasUsed": "0x640"
    },
    {
      "status": "0x1",
      "cumulativeGasUsed": "0x140b2e",
      "logs": [
        {
          "address": "0x27325be0cf6c908c282b64565ba05b8c7d0642de",
          "topics": [
            "0xef81a9943b96c8df4ef243401c9bf5159146166211356898b52d382086168d92",
            "0x0000000000000000000000005c653af4ae1d25d0a7d01c3191a049c29932df26"
          ],
          "data": "0x0000000000000000000000000000000000000000000000000000000000000001",
          "blockHash": "0x563654774767ee3c9ccea840f4008e95e38e59059fd4de96276fce931ec84122",
          "blockNumber": "0x1f374e3",
          "blockTimestamp": "0x68fa48a6",
          "transactionHash": "0x65e0e67538edf4db1be1757757b4191ad428cf250c5844db3042ea224c9cb102",
          "transactionIndex": "0x9",
          "logIndex": "0x2f",
          "removed": false
        }
      ],
      "logsBloom": "0x00000000000000000000000000000000000000000000000000000000000000000000000000000000000000000000000000000000000000000000000000000000000000000000000000000000000000000800000000000000400000000000008002000000000000000000008000000000000000000000000000000000000004000000000000000000000000000000040000000000000000001000000000000000000000000000000000000000000000000000000000000000000000000000000000000000000000000000000000000000000000000000000000000000000000000000000000000000000100000000000000000000000000000000000000000000",
      "type": "0x2",
      "transactionHash": "0x65e0e67538edf4db1be1757757b4191ad428cf250c5844db3042ea224c9cb102",
      "transactionIndex": "0x9",
      "blockHash": "0x563654774767ee3c9ccea840f4008e95e38e59059fd4de96276fce931ec84122",
      "blockNumber": "0x1f374e3",
      "gasUsed": "0x13b77",
      "effectiveGasPrice": "0xf4282",
      "from": "0xf977f34db8a986a0a9edec3e744092c715ef793c",
      "to": "0x27325be0cf6c908c282b64565ba05b8c7d0642de",
      "contractAddress": null,
      "l1BaseFeeScalar": "0x44d",
      "l1BlobBaseFee": "0x1",
      "l1BlobBaseFeeScalar": "0xa118b",
      "l1Fee": "0x55",
      "l1GasPrice": "0xb",
      "l1GasUsed": "0x640"
    },
    {
      "status": "0x1",
      "cumulativeGasUsed": "0x1546a5",
      "logs": [
        {
          "address": "0x27325be0cf6c908c282b64565ba05b8c7d0642de",
          "topics": [
            "0xef81a9943b96c8df4ef243401c9bf5159146166211356898b52d382086168d92",
            "0x000000000000000000000000da0851ed5751e6400b0622156923a172f0810c2f"
          ],
          "data": "0x0000000000000000000000000000000000000000000000000000000000000001",
          "blockHash": "0x563654774767ee3c9ccea840f4008e95e38e59059fd4de96276fce931ec84122",
          "blockNumber": "0x1f374e3",
          "blockTimestamp": "0x68fa48a6",
          "transactionHash": "0xed12efef66b3b2f66dbec8f8df42cfa1833669536e4ea05f15db1e027dd71d8c",
          "transactionIndex": "0xa",
          "logIndex": "0x30",
          "removed": false
        }
      ],
      "logsBloom": "0x00000000000000000000000000000000000000000000000000000000000000000000000000000000000000000000000000000000000000000000000000000000000000000000800000000000000000000800000000000000000000000000000002000000000000000000008000000000000000000000000000000000200004000000000000000000000000000000040000000000000000000000000000000000000000000000000000000000000000000000000000000000004000000000000000000000000000000000000000000000000000000000000000000000000000000000000000000000000100000000000000000000000000000000000000000000",
      "type": "0x2",
      "transactionHash": "0xed12efef66b3b2f66dbec8f8df42cfa1833669536e4ea05f15db1e027dd71d8c",
      "transactionIndex": "0xa",
      "blockHash": "0x563654774767ee3c9ccea840f4008e95e38e59059fd4de96276fce931ec84122",
      "blockNumber": "0x1f374e3",
      "gasUsed": "0x13b77",
      "effectiveGasPrice": "0xf4282",
      "from": "0xf977f34db8a986a0a9edec3e744092c715ef793c",
      "to": "0x27325be0cf6c908c282b64565ba05b8c7d0642de",
      "contractAddress": null,
      "l1BaseFeeScalar": "0x44d",
      "l1BlobBaseFee": "0x1",
      "l1BlobBaseFeeScalar": "0xa118b",
      "l1Fee": "0x55",
      "l1GasPrice": "0xb",
      "l1GasUsed": "0x640"
    }
  ],
  "libraries": [],
  "pending": [],
  "returns": {},
  "timestamp": 1761233063921,
  "chain": 84532,
  "commit": "6772081"
}