{
  "transactions": [
    {
      "hash": "0x775f5fe031b8e0d3d732bde446544499d22d940873f864acd17804e79f5d3883",
      "transactionType": "CALL",
      "contractName": null,
      "contractAddress": "0x7b6caad71a1618dfb66392be6f8cb71010349dff",
      "function": "mint(address,uint256)",
      "arguments": [
        "0xd8C3b28b7b574c291F4D404Eca76B139Ff087276",
        "10000000000000000000000"
      ],
      "transaction": {
        "from": "0xf977f34db8a986a0a9edec3e744092c715ef793c",
        "to": "0x7b6caad71a1618dfb66392be6f8cb71010349dff",
        "gas": "0x11382",
        "value": "0x0",
        "input": "0x40c10f19000000000000000000000000d8c3b28b7b574c291f4d404eca76b139ff08727600000000000000000000000000000000000000000000021e19e0c9bab2400000",
        "nonce": "0xe3",
        "chainId": "0x14a34"
      },
      "additionalContracts": [],
      "isFixedGasLimit": false
    },
    {
      "hash": "0xeb8a3a14dd85bfaeb4d4ae71db1fb9f5d74715867c9b6c6a8a5160dd900f70cc",
      "transactionType": "CALL",
      "contractName": null,
      "contractAddress": "0x4fd923620866ee5377cb072fd8a2c449a397b264",
      "function": "mint(address,uint256)",
      "arguments": [
        "0xd8C3b28b7b574c291F4D404Eca76B139Ff087276",
        "10000000000"
      ],
      "transaction": {
        "from": "0xf977f34db8a986a0a9edec3e744092c715ef793c",
        "to": "0x4fd923620866ee5377cb072fd8a2c449a397b264",
        "gas": "0x1133f",
        "value": "0x0",
        "input": "0x40c10f19000000000000000000000000d8c3b28b7b574c291f4d404eca76b139ff08727600000000000000000000000000000000000000000000000000000002540be400",
        "nonce": "0xe4",
        "chainId": "0x14a34"
      },
      "additionalContracts": [],
      "isFixedGasLimit": false
    },
    {
      "hash": "0x87fd19d0c2cc0032c4e6fb92bc413d04c05925c3d26e69ab587874aa68effdb3",
      "transactionType": "CALL",
      "contractName": null,
      "contractAddress": "0xf988aa533c303c480d366081d265709549a765d0",
      "function": "mint(address,uint256)",
      "arguments": [
        "0xd8C3b28b7b574c291F4D404Eca76B139Ff087276",
        "10000000000000000000000"
      ],
      "transaction": {
        "from": "0xf977f34db8a986a0a9edec3e744092c715ef793c",
        "to": "0xf988aa533c303c480d366081d265709549a765d0",
        "gas": "0x11382",
        "value": "0x0",
        "input": "0x40c10f19000000000000000000000000d8c3b28b7b574c291f4d404eca76b139ff08727600000000000000000000000000000000000000000000021e19e0c9bab2400000",
        "nonce": "0xe5",
        "chainId": "0x14a34"
      },
      "additionalContracts": [],
      "isFixedGasLimit": false
    },
    {
      "hash": "0x52e0a623998703847fda55991f22dbb64aa79c694c60ae4d0db958ce8f9f7685",
      "transactionType": "CALL",
      "contractName": null,
      "contractAddress": "0x6831062bb9c1fdfcb5b4618cf1462041178b8197",
      "function": "mint(address,uint256)",
      "arguments": [
        "0xd8C3b28b7b574c291F4D404Eca76B139Ff087276",
        "1000000000000"
      ],
      "transaction": {
        "from": "0xf977f34db8a986a0a9edec3e744092c715ef793c",
        "to": "0x6831062bb9c1fdfcb5b4618cf1462041178b8197",
        "gas": "0x1133f",
        "value": "0x0",
        "input": "0x40c10f19000000000000000000000000d8c3b28b7b574c291f4d404eca76b139ff087276000000000000000000000000000000000000000000000000000000e8d4a51000",
        "nonce": "0xe6",
        "chainId": "0x14a34"
      },
      "additionalContracts": [],
      "isFixedGasLimit": false
    },
    {
      "hash": "0xb55ed6f1429e0a1afc08ed8baf5e17ebe06abdfab70ee2b53df00b0130181822",
      "transactionType": "CALL",
      "contractName": null,
      "contractAddress": "0x34cef345900425a72c1421d47ebadd78d7dc8772",
      "function": "mint(address,uint256)",
      "arguments": [
        "0xd8C3b28b7b574c291F4D404Eca76B139Ff087276",
        "1000000000000"
      ],
      "transaction": {
        "from": "0xf977f34db8a986a0a9edec3e744092c715ef793c",
        "to": "0x34cef345900425a72c1421d47ebadd78d7dc8772",
        "gas": "0x1133f",
        "value": "0x0",
        "input": "0x40c10f19000000000000000000000000d8c3b28b7b574c291f4d404eca76b139ff087276000000000000000000000000000000000000000000000000000000e8d4a51000",
        "nonce": "0xe7",
        "chainId": "0x14a34"
      },
      "additionalContracts": [],
      "isFixedGasLimit": false
    },
    {
      "hash": "0xbe424af092c2431e94e3519cb2010d60e30b123ad9cfe9dd0a2a297ad62a9c1a",
      "transactionType": "CALL",
      "contractName": null,
      "contractAddress": "0x279c4d0ad3f8a74fa266d5d75f87de93da7c9268",
      "function": "mint(address,uint256)",
      "arguments": [
        "0xd8C3b28b7b574c291F4D404Eca76B139Ff087276",
        "10000000000000000000000"
      ],
      "transaction": {
        "from": "0xf977f34db8a986a0a9edec3e744092c715ef793c",
        "to": "0x279c4d0ad3f8a74fa266d5d75f87de93da7c9268",
        "gas": "0x11382",
        "value": "0x0",
        "input": "0x40c10f19000000000000000000000000d8c3b28b7b574c291f4d404eca76b139ff08727600000000000000000000000000000000000000000000021e19e0c9bab2400000",
        "nonce": "0xe8",
        "chainId": "0x14a34"
      },
      "additionalContracts": [],
      "isFixedGasLimit": false
    },
    {
      "hash": "0x1ef5a192b64dd21ff1ebea81da72df1209f7a8bf68a57707eaa3fa9439cd21d1",
      "transactionType": "CALL",
      "contractName": null,
      "contractAddress": "0x616533dfee0d30085426ab025de2bee9f981b1b1",
      "function": "mint(address,uint256)",
      "arguments": [
        "0xd8C3b28b7b574c291F4D404Eca76B139Ff087276",
        "10000000000000000000000"
      ],
      "transaction": {
        "from": "0xf977f34db8a986a0a9edec3e744092c715ef793c",
        "to": "0x616533dfee0d30085426ab025de2bee9f981b1b1",
        "gas": "0x11382",
        "value": "0x0",
        "input": "0x40c10f19000000000000000000000000d8c3b28b7b574c291f4d404eca76b139ff08727600000000000000000000000000000000000000000000021e19e0c9bab2400000",
        "nonce": "0xe9",
        "chainId": "0x14a34"
      },
      "additionalContracts": [],
      "isFixedGasLimit": false
    },
    {
      "hash": "0x70e6ded472ad58e7a9d23cdc2618375735a1f427d9659a4b5ea61fb0237204d0",
      "transactionType": "CALL",
      "contractName": null,
      "contractAddress": "0x60a08d78e8f179588cb7310fde76195e29894fed",
      "function": "mint(address,uint256)",
      "arguments": [
        "0xd8C3b28b7b574c291F4D404Eca76B139Ff087276",
        "10000000000000000000000"
      ],
      "transaction": {
        "from": "0xf977f34db8a986a0a9edec3e744092c715ef793c",
        "to": "0x60a08d78e8f179588cb7310fde76195e29894fed",
        "gas": "0x11382",
        "value": "0x0",
        "input": "0x40c10f19000000000000000000000000d8c3b28b7b574c291f4d404eca76b139ff08727600000000000000000000000000000000000000000000021e19e0c9bab2400000",
        "nonce": "0xea",
        "chainId": "0x14a34"
      },
      "additionalContracts": [],
      "isFixedGasLimit": false
    },
    {
      "hash": "0x7a34ddc0f57dd7164f5bacc03ca4ccbd403f205363fd23200d2c6bfe07cba663",
      "transactionType": "CALL",
      "contractName": null,
      "contractAddress": "0x5c653af4ae1d25d0a7d01c3191a049c29932df26",
      "function": "mint(address,uint256)",
      "arguments": [
        "0xd8C3b28b7b574c291F4D404Eca76B139Ff087276",
        "10000000000000000000000"
      ],
      "transaction": {
        "from": "0xf977f34db8a986a0a9edec3e744092c715ef793c",
        "to": "0x5c653af4ae1d25d0a7d01c3191a049c29932df26",
        "gas": "0x11382",
        "value": "0x0",
        "input": "0x40c10f19000000000000000000000000d8c3b28b7b574c291f4d404eca76b139ff08727600000000000000000000000000000000000000000000021e19e0c9bab2400000",
        "nonce": "0xeb",
        "chainId": "0x14a34"
      },
      "additionalContracts": [],
      "isFixedGasLimit": false
    },
    {
      "hash": "0x608aac535e6705f1171d69f5d873960d6e5ecab55eda72610f60618690be266e",
      "transactionType": "CALL",
      "contractName": null,
      "contractAddress": "0xda0851ed5751e6400b0622156923a172f0810c2f",
      "function": "mint(address,uint256)",
      "arguments": [
        "0xd8C3b28b7b574c291F4D404Eca76B139Ff087276",
        "10000000000000000000000"
      ],
      "transaction": {
        "from": "0xf977f34db8a986a0a9edec3e744092c715ef793c",
        "to": "0xda0851ed5751e6400b0622156923a172f0810c2f",
        "gas": "0x11382",
        "value": "0x0",
        "input": "0x40c10f19000000000000000000000000d8c3b28b7b574c291f4d404eca76b139ff08727600000000000000000000000000000000000000000000021e19e0c9bab2400000",
        "nonce": "0xec",
        "chainId": "0x14a34"
      },
      "additionalContracts": [],
      "isFixedGasLimit": false
    }
  ],
  "receipts": [
    {
      "status": "0x1",
      "cumulativeGasUsed": "0x2cdbc0",
      "logs": [
        {
          "address": "0x7b6caad71a1618dfb66392be6f8cb71010349dff",
          "topics": [
            "0xddf252ad1be2c89b69c2b068fc378daa952ba7f163c4a11628f55a4df523b3ef",
            "0x0000000000000000000000000000000000000000000000000000000000000000",
            "0x000000000000000000000000d8c3b28b7b574c291f4d404eca76b139ff087276"
          ],
          "data": "0x00000000000000000000000000000000000000000000021e19e0c9bab2400000",
          "blockHash": "0xdc721c2cdfb4a1118de0cc1917f81e48d3cd1abc8e1c76e9efb74d5618f7e9a8",
          "blockNumber": "0x1f426b2",
          "blockTimestamp": "0x68fbac44",
          "transactionHash": "0x775f5fe031b8e0d3d732bde446544499d22d940873f864acd17804e79f5d3883",
          "transactionIndex": "0x10",
          "logIndex": "0x4f",
          "removed": false
        }
      ],
      "logsBloom": "0x00000000080000000000000000000000000000000000000000000000000000000000000000000000000000000000000000000000000000000000000000000000000000000000000000000008000000000000000000000000000000000000000000000000020000000000000000000800000000000100080000000010000000000000000000000000000000000000000000400010000000000000000000000000000000000000000000000000000000000000000000000000000020000000000000000002000000000000000000000000000000000000000000000000000020000000000000000000000000000000000000000000000000000000000000000000",
      "type": "0x2",
      "transactionHash": "0x775f5fe031b8e0d3d732bde446544499d22d940873f864acd17804e79f5d3883",
      "transactionIndex": "0x10",
      "blockHash": "0xdc721c2cdfb4a1118de0cc1917f81e48d3cd1abc8e1c76e9efb74d5618f7e9a8",
      "blockNumber": "0x1f426b2",
      "gasUsed": "0xc777",
      "effectiveGasPrice": "0x10206e",
      "from": "0xf977f34db8a986a0a9edec3e744092c715ef793c",
      "to": "0x7b6caad71a1618dfb66392be6f8cb71010349dff",
      "contractAddress": null,
      "l1BaseFeeScalar": "0x44d",
      "l1BlobBaseFee": "0x1",
      "l1BlobBaseFeeScalar": "0xa118b",
      "l1Fee": "0x51",
      "l1GasPrice": "0x9",
      "l1GasUsed": "0x640"
    },
    {
      "status": "0x1",
      "cumulativeGasUsed": "0x2da307",
      "logs": [
        {
          "address": "0x4fd923620866ee5377cb072fd8a2c449a397b264",
          "topics": [
            "0xddf252ad1be2c89b69c2b068fc378daa952ba7f163c4a11628f55a4df523b3ef",
            "0x0000000000000000000000000000000000000000000000000000000000000000",
            "0x000000000000000000000000d8c3b28b7b574c291f4d404eca76b139ff087276"
          ],
          "data": "0x00000000000000000000000000000000000000000000000000000002540be400",
          "blockHash": "0xdc721c2cdfb4a1118de0cc1917f81e48d3cd1abc8e1c76e9efb74d5618f7e9a8",
          "blockNumber": "0x1f426b2",
          "blockTimestamp": "0x68fbac44",
          "transactionHash": "0xeb8a3a14dd85bfaeb4d4ae71db1fb9f5d74715867c9b6c6a8a5160dd900f70cc",
          "transactionIndex": "0x11",
          "logIndex": "0x50",
          "removed": false
        }
      ],
      "logsBloom": "0x00000000000000000000000000000000000000000000000000000000000000000000000000000000000000000000000000000000000000000000000000000000000000000000000000000008000000000000010000000000000000000000000000000000020000000000000000000800000000000000080000000010000000000000000000000000000000000000000000400010000000000000000000000000000000000000000000000000000000000200000000000000000000000000000000000002000000000000000000000000000000001000000000000000000020000000000000000000000000000000000000000000000000000000000000000000",
      "type": "0x2",
      "transactionHash": "0xeb8a3a14dd85bfaeb4d4ae71db1fb9f5d74715867c9b6c6a8a5160dd900f70cc",
      "transactionIndex": "0x11",
      "blockHash": "0xdc721c2cdfb4a1118de0cc1917f81e48d3cd1abc8e1c76e9efb74d5618f7e9a8",
      "blockNumber": "0x1f426b2",
      "gasUsed": "0xc747",
      "effectiveGasPrice": "0x10206e",
      "from": "0xf977f34db8a986a0a9edec3e744092c715ef793c",
      "to": "0x4fd923620866ee5377cb072fd8a2c449a397b264",
      "contractAddress": null,
      "l1BaseFeeScalar": "0x44d",
      "l1BlobBaseFee": "0x1",
      "l1BlobBaseFeeScalar": "0xa118b",
      "l1Fee": "0x51",
      "l1GasPrice": "0x9",
      "l1GasUsed": "0x640"
    },
    {
      "status": "0x1",
      "cumulativeGasUsed": "0x2e6a7e",
      "logs": [
        {
          "address": "0xf988aa533c303c480d366081d265709549a765d0",
          "topics": [
            "0xddf252ad1be2c89b69c2b068fc378daa952ba7f163c4a11628f55a4df523b3ef",
            "0x0000000000000000000000000000000000000000000000000000000000000000",
            "0x000000000000000000000000d8c3b28b7b574c291f4d404eca76b139ff087276"
          ],
          "data": "0x00000000000000000000000000000000000000000000021e19e0c9bab2400000",
          "blockHash": "0xdc721c2cdfb4a1118de0cc1917f81e48d3cd1abc8e1c76e9efb74d5618f7e9a8",
          "blockNumber": "0x1f426b2",
          "blockTimestamp": "0x68fbac44",
          "transactionHash": "0x87fd19d0c2cc0032c4e6fb92bc413d04c05925c3d26e69ab587874aa68effdb3",
          "transactionIndex": "0x12",
          "logIndex": "0x51",
          "removed": false
        }
      ],
      "logsBloom": "0x00000000000000000000000000000000000000000000000000000000000000000000000000000000000000000000000000000000000000000000000000000000000000000000000000000008000000000000000000000000000000000000000000000000020000000000000000000800010000000000080000000010200000000000000000000000000000000000000000400010000000000000000000000000000000000000000000000000000000000000000000000000000000000000000000000002000000000000000000000000000000000000000000000000000020000000000000000080000000000000000000000000000000000000000000000000",
      "type": "0x2",
      "transactionHash": "0x87fd19d0c2cc0032c4e6fb92bc413d04c05925c3d26e69ab587874aa68effdb3",
      "transactionIndex": "0x12",
      "blockHash": "0xdc721c2cdfb4a1118de0cc1917f81e48d3cd1abc8e1c76e9efb74d5618f7e9a8",
      "blockNumber": "0x1f426b2",
      "gasUsed": "0xc777",
      "effectiveGasPrice": "0x10206e",
      "from": "0xf977f34db8a986a0a9edec3e744092c715ef793c",
      "to": "0xf988aa533c303c480d366081d265709549a765d0",
      "contractAddress": null,
      "l1BaseFeeScalar": "0x44d",
      "l1BlobBaseFee": "0x1",
      "l1BlobBaseFeeScalar": "0xa118b",
      "l1Fee": "0x51",
      "l1GasPrice": "0x9",
      "l1GasUsed": "0x640"
    },
    {
      "status": "0x1",
      "cumulativeGasUsed": "0x2f31c5",
      "logs": [
        {
          "address": "0x6831062bb9c1fdfcb5b4618cf1462041178b8197",
          "topics": [
            "0xddf252ad1be2c89b69c2b068fc378daa952ba7f163c4a11628f55a4df523b3ef",
            "0x0000000000000000000000000000000000000000000000000000000000000000",
            "0x000000000000000000000000d8c3b28b7b574c291f4d404eca76b139ff087276"
          ],
          "data": "0x000000000000000000000000000000000000000000000000000000e8d4a51000",
          "blockHash": "0xdc721c2cdfb4a1118de0cc1917f81e48d3cd1abc8e1c76e9efb74d5618f7e9a8",
          "blockNumber": "0x1f426b2",
          "blockTimestamp": "0x68fbac44",
          "transactionHash": "0x52e0a623998703847fda55991f22dbb64aa79c694c60ae4d0db958ce8f9f7685",
          "transactionIndex": "0x13",
          "logIndex": "0x52",
          "removed": false
        }
      ],
      "logsBloom": "0x00000000000000000000000000000000000000000000000000000000000000000000000000000000000000000000000000000000000000000000000000000000000000000000000000000008000000000000000000000000000000000000000000000000020000000000000000000800000000000000080000000010000000000000000000000000000000000000000000400010000000000000000000000000000000000000000000000000000000000000000000000000000000000000000000000002000000000000000000000000000000000000000000200000000020000000000004000000800000000000000000000000000000000000000000000000",
      "type": "0x2",
      "transactionHash": "0x52e0a623998703847fda55991f22dbb64aa79c694c60ae4d0db958ce8f9f7685",
      "transactionIndex": "0x13",
      "blockHash": "0xdc721c2cdfb4a1118de0cc1917f81e48d3cd1abc8e1c76e9efb74d5618f7e9a8",
      "blockNumber": "0x1f426b2",
      "gasUsed": "0xc747",
      "effectiveGasPrice": "0x10206e",
      "from": "0xf977f34db8a986a0a9edec3e744092c715ef793c",
      "to": "0x6831062bb9c1fdfcb5b4618cf1462041178b8197",
      "contractAddress": null,
      "l1BaseFeeScalar": "0x44d",
      "l1BlobBaseFee": "0x1",
      "l1BlobBaseFeeScalar": "0xa118b",
      "l1Fee": "0x51",
      "l1GasPrice": "0x9",
      "l1GasUsed": "0x640"
    },
    {
      "status": "0x1",
      "cumulativeGasUsed": "0x2ff90c",
      "logs": [
        {
          "address": "0x34cef345900425a72c1421d47ebadd78d7dc8772",
          "topics": [
            "0xddf252ad1be2c89b69c2b068fc378daa952ba7f163c4a11628f55a4df523b3ef",
            "0x0000000000000000000000000000000000000000000000000000000000000000",
            "0x000000000000000000000000d8c3b28b7b574c291f4d404eca76b139ff087276"
          ],
          "data": "0x000000000000000000000000000000000000000000000000000000e8d4a51000",
          "blockHash": "0xdc721c2cdfb4a1118de0cc1917f81e48d3cd1abc8e1c76e9efb74d5618f7e9a8",
          "blockNumber": "0x1f426b2",
          "blockTimestamp": "0x68fbac44",
          "transactionHash": "0xb55ed6f1429e0a1afc08ed8baf5e17ebe06abdfab70ee2b53df00b0130181822",
          "transactionIndex": "0x14",
          "logIndex": "0x53",
          "removed": false
        }
      ],
      "logsBloom": "0x00000000000000000000000000000000000000000000000000000000000000000000000000000000000000000000000000000000000000000000000000000000000000000000000000000008000000000000002000000000000000000000000000000000020000000000000000000800000000000000080000000010000000000000000000000000000000000000000000400010000000000000000000000000000000000000000000000008000000000000000000800000000000000000000000000002000000000000000000000000000000000000000000000000000020000000000000000000000000000000000000000000000000000000000000000000",
      "type": "0x2",
      "transactionHash": "0xb55ed6f1429e0a1afc08ed8baf5e17ebe06abdfab70ee2b53df00b0130181822",
      "transactionIndex": "0x14",
      "blockHash": "0xdc721c2cdfb4a1118de0cc1917f81e48d3cd1abc8e1c76e9efb74d5618f7e9a8",
      "blockNumber": "0x1f426b2",
      "gasUsed": "0xc747",
      "effectiveGasPrice": "0x10206e",
      "from": "0xf977f34db8a986a0a9edec3e744092c715ef793c",
      "to": "0x34cef345900425a72c1421d47ebadd78d7dc8772",
      "contractAddress": null,
      "l1BaseFeeScalar": "0x44d",
      "l1BlobBaseFee": "0x1",
      "l1BlobBaseFeeScalar": "0xa118b",
      "l1Fee": "0x51",
      "l1GasPrice": "0x9",
      "l1GasUsed": "0x640"
    },
    {
      "status": "0x1",
      "cumulativeGasUsed": "0x30c083",
      "logs": [
        {
          "address": "0x279c4d0ad3f8a74fa266d5d75f87de93da7c9268",
          "topics": [
            "0xddf252ad1be2c89b69c2b068fc378daa952ba7f163c4a11628f55a4df523b3ef",
            "0x0000000000000000000000000000000000000000000000000000000000000000",
            "0x000000000000000000000000d8c3b28b7b574c291f4d404eca76b139ff087276"
          ],
          "data": "0x00000000000000000000000000000000000000000000021e19e0c9bab2400000",
          "blockHash": "0xdc721c2cdfb4a1118de0cc1917f81e48d3cd1abc8e1c76e9efb74d5618f7e9a8",
          "blockNumber": "0x1f426b2",
          "blockTimestamp": "0x68fbac44",
          "transactionHash": "0xbe424af092c2431e94e3519cb2010d60e30b123ad9cfe9dd0a2a297ad62a9c1a",
          "transactionIndex": "0x15",
          "logIndex": "0x54",
          "removed": false
        }
      ],
      "logsBloom": "0x00000000000000000000000000000000000000000000000000000000000000000000000000000000000000000000000000000000000000000000000000000000000000000000000000000008000000000000000000000000000000000000000000000000020000000000000000000800000000000000080000000010008000000000000000000000000000000002000000400010000000000000000000000000000000000000000000000000000000000000000000000000000000000000000000000002000000000000000000000000000000000000000000000000000020000000800000000000000000000000000000000000000000000000000000000000",
      "type": "0x2",
      "transactionHash": "0xbe424af092c2431e94e3519cb2010d60e30b123ad9cfe9dd0a2a297ad62a9c1a",
      "transactionIndex": "0x15",
      "blockHash": "0xdc721c2cdfb4a1118de0cc1917f81e48d3cd1abc8e1c76e9efb74d5618f7e9a8",
      "blockNumber": "0x1f426b2",
      "gasUsed": "0xc777",
      "effectiveGasPrice": "0x10206e",
      "from": "0xf977f34db8a986a0a9edec3e744092c715ef793c",
      "to": "0x279c4d0ad3f8a74fa266d5d75f87de93da7c9268",
      "contractAddress": null,
      "l1BaseFeeScalar": "0x44d",
      "l1BlobBaseFee": "0x1",
      "l1BlobBaseFeeScalar": "0xa118b",
      "l1Fee": "0x51",
      "l1GasPrice": "0x9",
      "l1GasUsed": "0x640"
    },
    {
      "status": "0x1",
      "cumulativeGasUsed": "0x3187fa",
      "logs": [
        {
          "address": "0x616533dfee0d30085426ab025de2bee9f981b1b1",
          "topics": [
            "0xddf252ad1be2c89b69c2b068fc378daa952ba7f163c4a11628f55a4df523b3ef",
            "0x0000000000000000000000000000000000000000000000000000000000000000",
            "0x000000000000000000000000d8c3b28b7b574c291f4d404eca76b139ff087276"
          ],
          "data": "0x00000000000000000000000000000000000000000000021e19e0c9bab2400000",
          "blockHash": "0xdc721c2cdfb4a1118de0cc1917f81e48d3cd1abc8e1c76e9efb74d5618f7e9a8",
          "blockNumber": "0x1f426b2",
          "blockTimestamp": "0x68fbac44",
          "transactionHash": "0x1ef5a192b64dd21ff1ebea81da72df1209f7a8bf68a57707eaa3fa9439cd21d1",
          "transactionIndex": "0x16",
          "logIndex": "0x55",
          "removed": false
        }
      ],
      "logsBloom": "0x00000000000000000000000000000000000000000000000000000000000000000000000000000000000000000000000000000000000000000000000000000000000000000000000000000008000000000000000000000000000000000000200000000000020000000000000000000800000000000000080000000010000000000000000000000000000000000000000000400010000000040000000000000000000000000000000000000000000000000000000000000000000000000000000000000002000000000000000000000000000000000000000000000000000020000000000000000000000000000000000000000000000000000000000000000000",
      "type": "0x2",
      "transactionHash": "0x1ef5a192b64dd21ff1ebea81da72df1209f7a8bf68a57707eaa3fa9439cd21d1",
      "transactionIndex": "0x16",
      "blockHash": "0xdc721c2cdfb4a1118de0cc1917f81e48d3cd1abc8e1c76e9efb74d5618f7e9a8",
      "blockNumber": "0x1f426b2",
      "gasUsed": "0xc777",
      "effectiveGasPrice": "0x10206e",
      "from": "0xf977f34db8a986a0a9edec3e744092c715ef793c",
      "to": "0x616533dfee0d30085426ab025de2bee9f981b1b1",
      "contractAddress": null,
      "l1BaseFeeScalar": "0x44d",
      "l1BlobBaseFee": "0x1",
      "l1BlobBaseFeeScalar": "0xa118b",
      "l1Fee": "0x51",
      "l1GasPrice": "0x9",
      "l1GasUsed": "0x640"
    },
    {
      "status": "0x1",
      "cumulativeGasUsed": "0x17dd71b",
      "logs": [
        {
          "address": "0x60a08d78e8f179588cb7310fde76195e29894fed",
          "topics": [
            "0xddf252ad1be2c89b69c2b068fc378daa952ba7f163c4a11628f55a4df523b3ef",
            "0x0000000000000000000000000000000000000000000000000000000000000000",
            "0x000000000000000000000000d8c3b28b7b574c291f4d404eca76b139ff087276"
          ],
          "data": "0x00000000000000000000000000000000000000000000021e19e0c9bab2400000",
          "blockHash": "0xdc721c2cdfb4a1118de0cc1917f81e48d3cd1abc8e1c76e9efb74d5618f7e9a8",
          "blockNumber": "0x1f426b2",
          "blockTimestamp": "0x68fbac44",
          "transactionHash": "0x70e6ded472ad58e7a9d23cdc2618375735a1f427d9659a4b5ea61fb0237204d0",
          "transactionIndex": "0x5a",
          "logIndex": "0x2a5",
          "removed": false
        }
      ],
      "logsBloom": "0x00000000000000000000000000000000000000000000000000000000000000000000000000000000000000000000000000000000000000000000000000000000000000000000000000000008000000000000000040000000000000000000000000000000020000000000000000000800000000000000080000000010000000000000000000000000000000000000000000400010000000000000000000000000000000000000000000000000000000000000000000000000008000000000000000000002004000000000000000000000000000000000000000000000000020000000000000000000000000000000000000000000000000000000000000000000",
      "type": "0x2",
      "transactionHash": "0x70e6ded472ad58e7a9d23cdc2618375735a1f427d9659a4b5ea61fb0237204d0",
      "transactionIndex": "0x5a",
      "blockHash": "0xdc721c2cdfb4a1118de0cc1917f81e48d3cd1abc8e1c76e9efb74d5618f7e9a8",
      "blockNumber": "0x1f426b2",
      "gasUsed": "0xc777",
      "effectiveGasPrice": "0x10206e",
      "from": "0xf977f34db8a986a0a9edec3e744092c715ef793c",
      "to": "0x60a08d78e8f179588cb7310fde76195e29894fed",
      "contractAddress": null,
      "l1BaseFeeScalar": "0x44d",
      "l1BlobBaseFee": "0x1",
      "l1BlobBaseFeeScalar": "0xa118b",
      "l1Fee": "0x51",
      "l1GasPrice": "0x9",
      "l1GasUsed": "0x640"
    },
    {
      "status": "0x1",
      "cumulativeGasUsed": "0x17e9e92",
      "logs": [
        {
          "address": "0x5c653af4ae1d25d0a7d01c3191a049c29932df26",
          "topics": [
            "0xddf252ad1be2c89b69c2b068fc378daa952ba7f163c4a11628f55a4df523b3ef",
            "0x0000000000000000000000000000000000000000000000000000000000000000",
            "0x000000000000000000000000d8c3b28b7b574c291f4d404eca76b139ff087276"
          ],
          "data": "0x00000000000000000000000000000000000000000000021e19e0c9bab2400000",
          "blockHash": "0xdc721c2cdfb4a1118de0cc1917f81e48d3cd1abc8e1c76e9efb74d5618f7e9a8",
          "blockNumber": "0x1f426b2",
          "blockTimestamp": "0x68fbac44",
          "transactionHash": "0x7a34ddc0f57dd7164f5bacc03ca4ccbd403f205363fd23200d2c6bfe07cba663",
          "transactionIndex": "0x5b",
          "logIndex": "0x2a6",
          "removed": false
        }
      ],
      "logsBloom": "0x00000000000000000000000000000000000000000001000000000000000000000000000000000000000000000000000000000000000000000000000000000000000000000000000000000008008000000000000000000000000000000000000000000000020000000000000000000800000000000000080000000010000000000000000000000000000000000000000000400010000000000000000000000000000000000000000000000000000000000000000000000000000000000000000000000202000000000000000000000000000000000000000000000000000020000000000000000000000000000000000000000000000000000000000000000000",
      "type": "0x2",
      "transactionHash": "0x7a34ddc0f57dd7164f5bacc03ca4ccbd403f205363fd23200d2c6bfe07cba663",
      "transactionIndex": "0x5b",
      "blockHash": "0xdc721c2cdfb4a1118de0cc1917f81e48d3cd1abc8e1c76e9efb74d5618f7e9a8",
      "blockNumber": "0x1f426b2",
      "gasUsed": "0xc777",
      "effectiveGasPrice": "0x10206e",
      "from": "0xf977f34db8a986a0a9edec3e744092c715ef793c",
      "to": "0x5c653af4ae1d25d0a7d01c3191a049c29932df26",
      "contractAddress": null,
      "l1BaseFeeScalar": "0x44d",
      "l1BlobBaseFee": "0x1",
      "l1BlobBaseFeeScalar": "0xa118b",
      "l1Fee": "0x51",
      "l1GasPrice": "0x9",
      "l1GasUsed": "0x640"
    },
    {
      "status": "0x1",
      "cumulativeGasUsed": "0x17f6609",
      "logs": [
        {
          "address": "0xda0851ed5751e6400b0622156923a172f0810c2f",
          "topics": [
            "0xddf252ad1be2c89b69c2b068fc378daa952ba7f163c4a11628f55a4df523b3ef",
            "0x0000000000000000000000000000000000000000000000000000000000000000",
            "0x000000000000000000000000d8c3b28b7b574c291f4d404eca76b139ff087276"
          ],
          "data": "0x00000000000000000000000000000000000000000000021e19e0c9bab2400000",
          "blockHash": "0xdc721c2cdfb4a1118de0cc1917f81e48d3cd1abc8e1c76e9efb74d5618f7e9a8",
          "blockNumber": "0x1f426b2",
          "blockTimestamp": "0x68fbac44",
          "transactionHash": "0x608aac535e6705f1171d69f5d873960d6e5ecab55eda72610f60618690be266e",
          "transactionIndex": "0x5c",
          "logIndex": "0x2a7",
          "removed": false
        }
      ],
      "logsBloom": "0x00000000000000000000000000000002000000000000000000000000000000000000000000002000000000000000000000000000000000000000000000000000000000000000000000000008000000000000000000000000000000000000000000000000020000000000000000000800000000000000080000000010000000000000000000000000000000000000000000400010000000000000000000000010000000000000000000000000000000000000000000000000000000000000000000000002000000000000000000000000000000000000000000000000000020000000000000000000000000000000000000000000000000000000000000000000",
      "type": "0x2",
      "transactionHash": "0x608aac535e6705f1171d69f5d873960d6e5ecab55eda72610f60618690be266e",
      "transactionIndex": "0x5c",
      "blockHash": "0xdc721c2cdfb4a1118de0cc1917f81e48d3cd1abc8e1c76e9efb74d5618f7e9a8",
      "blockNumber": "0x1f426b2",
      "gasUsed": "0xc777",
      "effectiveGasPrice": "0x10206e",
      "from": "0xf977f34db8a986a0a9edec3e744092c715ef793c",
      "to": "0xda0851ed5751e6400b0622156923a172f0810c2f",
      "contractAddress": null,
      "l1BaseFeeScalar": "0x44d",
      "l1BlobBaseFee": "0x1",
      "l1BlobBaseFeeScalar": "0xa118b",
      "l1Fee": "0x51",
      "l1GasPrice": "0x9",
      "l1GasUsed": "0x640"
    }
  ],
  "libraries": [],
  "pending": [],
  "returns": {},
  "timestamp": 1761324101379,
  "chain": 84532,
  "commit": "5b45bd6"
}