{
  "transactions": [
    {
      "hash": "0x9d6367b0b4b26419ff973bcc56332bbe91a7d24644f79521a7b41da240d2d02f",
      "transactionType": "CALL",
      "contractName": "MockERC20",
      "contractAddress": "0x7b6caad71a1618dfb66392be6f8cb71010349dff",
      "function": "mint(address,uint256)",
      "arguments": [
        "0xF977F34dB8a986A0A9edec3E744092c715EF793c",
        "10000000000000000000000"
      ],
      "transaction": {
        "from": "0xf977f34db8a986a0a9edec3e744092c715ef793c",
        "to": "0x7b6caad71a1618dfb66392be6f8cb71010349dff",
        "gas": "0xc206",
        "value": "0x0",
        "input": "0x40c10f19000000000000000000000000f977f34db8a986a0a9edec3e744092c715ef793c00000000000000000000000000000000000000000000021e19e0c9bab2400000",
        "nonce": "0x4a",
        "chainId": "0x14a34"
      },
      "additionalContracts": [],
      "isFixedGasLimit": false
    },
    {
      "hash": "0x3abaa06569de9a3461e37ec44605867c68833c536333ea8d4c9bee3a88819ea4",
      "transactionType": "CALL",
      "contractName": "MockERC20",
      "contractAddress": "0x4fd923620866ee5377cb072fd8a2c449a397b264",
      "function": "mint(address,uint256)",
      "arguments": [
        "0xF977F34dB8a986A0A9edec3E744092c715EF793c",
        "10000000000"
      ],
      "transaction": {
        "from": "0xf977f34db8a986a0a9edec3e744092c715ef793c",
        "to": "0x4fd923620866ee5377cb072fd8a2c449a397b264",
        "gas": "0xc1c0",
        "value": "0x0",
        "input": "0x40c10f19000000000000000000000000f977f34db8a986a0a9edec3e744092c715ef793c00000000000000000000000000000000000000000000000000000002540be400",
        "nonce": "0x4b",
        "chainId": "0x14a34"
      },
      "additionalContracts": [],
      "isFixedGasLimit": false
    },
    {
      "hash": "0xcb31da87353e3f40509ed98caaa01c89c745f654991ee9c40e07c12c17b1e1b4",
      "transactionType": "CALL",
      "contractName": "MockERC20",
      "contractAddress": "0xf988aa533c303c480d366081d265709549a765d0",
      "function": "mint(address,uint256)",
      "arguments": [
        "0xF977F34dB8a986A0A9edec3E744092c715EF793c",
        "10000000000000000000000"
      ],
      "transaction": {
        "from": "0xf977f34db8a986a0a9edec3e744092c715ef793c",
        "to": "0xf988aa533c303c480d366081d265709549a765d0",
        "gas": "0xc206",
        "value": "0x0",
        "input": "0x40c10f19000000000000000000000000f977f34db8a986a0a9edec3e744092c715ef793c00000000000000000000000000000000000000000000021e19e0c9bab2400000",
        "nonce": "0x4c",
        "chainId": "0x14a34"
      },
      "additionalContracts": [],
      "isFixedGasLimit": false
    },
    {
      "hash": "0x562f86b8f9d2c53d5126ba4846abf10f8f323923b2d451e004aa345787870fa4",
      "transactionType": "CALL",
      "contractName": "MockERC20",
      "contractAddress": "0x6831062bb9c1fdfcb5b4618cf1462041178b8197",
      "function": "mint(address,uint256)",
      "arguments": [
        "0xF977F34dB8a986A0A9edec3E744092c715EF793c",
        "1000000000000"
      ],
      "transaction": {
        "from": "0xf977f34db8a986a0a9edec3e744092c715ef793c",
        "to": "0x6831062bb9c1fdfcb5b4618cf1462041178b8197",
        "gas": "0xc1c0",
        "value": "0x0",
        "input": "0x40c10f19000000000000000000000000f977f34db8a986a0a9edec3e744092c715ef793c000000000000000000000000000000000000000000000000000000e8d4a51000",
        "nonce": "0x4d",
        "chainId": "0x14a34"
      },
      "additionalContracts": [],
      "isFixedGasLimit": false
    },
    {
      "hash": "0xcb2031f7dd94ec091f5136278f8d893cb781b0290765477a15154236bb80eb25",
      "transactionType": "CALL",
      "contractName": "MockERC20",
      "contractAddress": "0x34cef345900425a72c1421d47ebadd78d7dc8772",
      "function": "mint(address,uint256)",
      "arguments": [
        "0xF977F34dB8a986A0A9edec3E744092c715EF793c",
        "1000000000000"
      ],
      "transaction": {
        "from": "0xf977f34db8a986a0a9edec3e744092c715ef793c",
        "to": "0x34cef345900425a72c1421d47ebadd78d7dc8772",
        "gas": "0xc1c0",
        "value": "0x0",
        "input": "0x40c10f19000000000000000000000000f977f34db8a986a0a9edec3e744092c715ef793c000000000000000000000000000000000000000000000000000000e8d4a51000",
        "nonce": "0x4e",
        "chainId": "0x14a34"
      },
      "additionalContracts": [],
      "isFixedGasLimit": false
    },
    {
      "hash": "0x8b3f197b68d994532eadc4f5b109a2bb3767340affcb88ac7746172d05e59af2",
      "transactionType": "CALL",
      "contractName": null,
      "contractAddress": "0x279c4d0ad3f8a74fa266d5d75f87de93da7c9268",
      "function": "mint(address,uint256)",
      "arguments": [
        "0xF977F34dB8a986A0A9edec3E744092c715EF793c",
        "10000000000000000000000"
      ],
      "transaction": {
        "from": "0xf977f34db8a986a0a9edec3e744092c715ef793c",
        "to": "0x279c4d0ad3f8a74fa266d5d75f87de93da7c9268",
        "gas": "0xc206",
        "value": "0x0",
        "input": "0x40c10f19000000000000000000000000f977f34db8a986a0a9edec3e744092c715ef793c00000000000000000000000000000000000000000000021e19e0c9bab2400000",
        "nonce": "0x4f",
        "chainId": "0x14a34"
      },
      "additionalContracts": [],
      "isFixedGasLimit": false
    },
    {
      "hash": "0xec845244b93acd8c81deb3457c74d1630179b2788dfa9153d5337e1fbd642111",
      "transactionType": "CALL",
      "contractName": null,
      "contractAddress": "0x616533dfee0d30085426ab025de2bee9f981b1b1",
      "function": "mint(address,uint256)",
      "arguments": [
        "0xF977F34dB8a986A0A9edec3E744092c715EF793c",
        "10000000000000000000000"
      ],
      "transaction": {
        "from": "0xf977f34db8a986a0a9edec3e744092c715ef793c",
        "to": "0x616533dfee0d30085426ab025de2bee9f981b1b1",
        "gas": "0xc206",
        "value": "0x0",
        "input": "0x40c10f19000000000000000000000000f977f34db8a986a0a9edec3e744092c715ef793c00000000000000000000000000000000000000000000021e19e0c9bab2400000",
        "nonce": "0x50",
        "chainId": "0x14a34"
      },
      "additionalContracts": [],
      "isFixedGasLimit": false
    },
    {
      "hash": "0x4ee6ee20c05a0efb6468827820dde2756f12e5ed1b4df100f34cc4e97581534c",
      "transactionType": "CALL",
      "contractName": null,
      "contractAddress": "0x60a08d78e8f179588cb7310fde76195e29894fed",
      "function": "mint(address,uint256)",
      "arguments": [
        "0xF977F34dB8a986A0A9edec3E744092c715EF793c",
        "10000000000000000000000"
      ],
      "transaction": {
        "from": "0xf977f34db8a986a0a9edec3e744092c715ef793c",
        "to": "0x60a08d78e8f179588cb7310fde76195e29894fed",
        "gas": "0xc206",
        "value": "0x0",
        "input": "0x40c10f19000000000000000000000000f977f34db8a986a0a9edec3e744092c715ef793c00000000000000000000000000000000000000000000021e19e0c9bab2400000",
        "nonce": "0x51",
        "chainId": "0x14a34"
      },
      "additionalContracts": [],
      "isFixedGasLimit": false
    },
    {
      "hash": "0x984ee5121d200781b32b2700698c6dd72e494aa010cffda323922b6857c6fff7",
      "transactionType": "CALL",
      "contractName": null,
      "contractAddress": "0x5c653af4ae1d25d0a7d01c3191a049c29932df26",
      "function": "mint(address,uint256)",
      "arguments": [
        "0xF977F34dB8a986A0A9edec3E744092c715EF793c",
        "10000000000000000000000"
      ],
      "transaction": {
        "from": "0xf977f34db8a986a0a9edec3e744092c715ef793c",
        "to": "0x5c653af4ae1d25d0a7d01c3191a049c29932df26",
        "gas": "0xc206",
        "value": "0x0",
        "input": "0x40c10f19000000000000000000000000f977f34db8a986a0a9edec3e744092c715ef793c00000000000000000000000000000000000000000000021e19e0c9bab2400000",
        "nonce": "0x52",
        "chainId": "0x14a34"
      },
      "additionalContracts": [],
      "isFixedGasLimit": false
    },
    {
      "hash": "0x7d3591a616f94f9f6390bc6c03716fdc52c6613779ca799a4b6307fd1b784c74",
      "transactionType": "CALL",
      "contractName": null,
      "contractAddress": "0xda0851ed5751e6400b0622156923a172f0810c2f",
      "function": "mint(address,uint256)",
      "arguments": [
        "0xF977F34dB8a986A0A9edec3E744092c715EF793c",
        "10000000000000000000000"
      ],
      "transaction": {
        "from": "0xf977f34db8a986a0a9edec3e744092c715ef793c",
        "to": "0xda0851ed5751e6400b0622156923a172f0810c2f",
        "gas": "0xc206",
        "value": "0x0",
        "input": "0x40c10f19000000000000000000000000f977f34db8a986a0a9edec3e744092c715ef793c00000000000000000000000000000000000000000000021e19e0c9bab2400000",
        "nonce": "0x53",
        "chainId": "0x14a34"
      },
      "additionalContracts": [],
      "isFixedGasLimit": false
    }
  ],
  "receipts": [
    {
      "status": "0x1",
      "cumulativeGasUsed": "0x257bb4",
      "logs": [
        {
          "address": "0x7b6caad71a1618dfb66392be6f8cb71010349dff",
          "topics": [
            "0xddf252ad1be2c89b69c2b068fc378daa952ba7f163c4a11628f55a4df523b3ef",
            "0x0000000000000000000000000000000000000000000000000000000000000000",
            "0x000000000000000000000000f977f34db8a986a0a9edec3e744092c715ef793c"
          ],
          "data": "0x00000000000000000000000000000000000000000000021e19e0c9bab2400000",
          "blockHash": "0x673a5fcb83603c9d7ebb94308e874c7301978e610a18ae8ad1c06225308b61c6",
          "blockNumber": "0x1f3762a",
          "blockTimestamp": "0x68fa4b34",
          "transactionHash": "0x9d6367b0b4b26419ff973bcc56332bbe91a7d24644f79521a7b41da240d2d02f",
          "transactionIndex": "0x8",
          "logIndex": "0x5b",
          "removed": false
        }
      ],
      "logsBloom": "0x00000000080000000000000000000000000000000000000000400000000000000000000000000000000000000000000000000000000000000000000000000000000000000000000000100008000000000000000000000000000000000000000000000000020000000000000000000800000000000100000000000010000000000000000000000000000000000000000000000000000000000000000000000000000000000000000000000000000000001000000000000000000020000000000000000002000000000000000000000000000000000000000000000000000020000000000000000000000000000000000000000000000000000000000000000000",
      "type": "0x2",
      "transactionHash": "0x9d6367b0b4b26419ff973bcc56332bbe91a7d24644f79521a7b41da240d2d02f",
      "transactionIndex": "0x8",
      "blockHash": "0x673a5fcb83603c9d7ebb94308e874c7301978e610a18ae8ad1c06225308b61c6",
      "blockNumber": "0x1f3762a",
      "gasUsed": "0x84ab",
      "effectiveGasPrice": "0xf4284",
      "from": "0xf977f34db8a986a0a9edec3e744092c715ef793c",
      "to": "0x7b6caad71a1618dfb66392be6f8cb71010349dff",
      "contractAddress": null,
      "l1BaseFeeScalar": "0x44d",
      "l1BlobBaseFee": "0x1",
      "l1BlobBaseFeeScalar": "0xa118b",
      "l1Fee": "0x51",
      "l1GasPrice": "0x9",
      "l1GasUsed": "0x640"
    },
    {
      "status": "0x1",
      "cumulativeGasUsed": "0x3beba6",
      "logs": [
        {
          "address": "0x4fd923620866ee5377cb072fd8a2c449a397b264",
          "topics": [
            "0xddf252ad1be2c89b69c2b068fc378daa952ba7f163c4a11628f55a4df523b3ef",
            "0x0000000000000000000000000000000000000000000000000000000000000000",
            "0x000000000000000000000000f977f34db8a986a0a9edec3e744092c715ef793c"
          ],
          "data": "0x00000000000000000000000000000000000000000000000000000002540be400",
          "blockHash": "0x673a5fcb83603c9d7ebb94308e874c7301978e610a18ae8ad1c06225308b61c6",
          "blockNumber": "0x1f3762a",
          "blockTimestamp": "0x68fa4b34",
          "transactionHash": "0x3abaa06569de9a3461e37ec44605867c68833c536333ea8d4c9bee3a88819ea4",
          "transactionIndex": "0x1d",
          "logIndex": "0x71",
          "removed": false
        }
      ],
      "logsBloom": "0x00000000000000000000000000000000000000000000000000400000000000000000000000000000000000000000000000000000000000000000000000000000000000000000000000100008000000000000010000000000000000000000000000000000020000000000000000000800000000000000000000000010000000000000000000000000000000000000000000000000000000000000000000000000000000000000000000000000000000001200000000000000000000000000000000000002000000000000000000000000000000001000000000000000000020000000000000000000000000000000000000000000000000000000000000000000",
      "type": "0x2",
      "transactionHash": "0x3abaa06569de9a3461e37ec44605867c68833c536333ea8d4c9bee3a88819ea4",
      "transactionIndex": "0x1d",
      "blockHash": "0x673a5fcb83603c9d7ebb94308e874c7301978e610a18ae8ad1c06225308b61c6",
      "blockNumber": "0x1f3762a",
      "gasUsed": "0x847b",
      "effectiveGasPrice": "0xf4284",
      "from": "0xf977f34db8a986a0a9edec3e744092c715ef793c",
      "to": "0x4fd923620866ee5377cb072fd8a2c449a397b264",
      "contractAddress": null,
      "l1BaseFeeScalar": "0x44d",
      "l1BlobBaseFee": "0x1",
      "l1BlobBaseFeeScalar": "0xa118b",
      "l1Fee": "0x51",
      "l1GasPrice": "0x9",
      "l1GasUsed": "0x640"
    },
    {
      "status": "0x1",
      "cumulativeGasUsed": "0x3c7051",
      "logs": [
        {
          "address": "0xf988aa533c303c480d366081d265709549a765d0",
          "topics": [
            "0xddf252ad1be2c89b69c2b068fc378daa952ba7f163c4a11628f55a4df523b3ef",
            "0x0000000000000000000000000000000000000000000000000000000000000000",
            "0x000000000000000000000000f977f34db8a986a0a9edec3e744092c715ef793c"
          ],
          "data": "0x00000000000000000000000000000000000000000000021e19e0c9bab2400000",
          "blockHash": "0x673a5fcb83603c9d7ebb94308e874c7301978e610a18ae8ad1c06225308b61c6",
          "blockNumber": "0x1f3762a",
          "blockTimestamp": "0x68fa4b34",
          "transactionHash": "0xcb31da87353e3f40509ed98caaa01c89c745f654991ee9c40e07c12c17b1e1b4",
          "transactionIndex": "0x1e",
          "logIndex": "0x72",
          "removed": false
        }
      ],
      "logsBloom": "0x00000000000000000000000000000000000000000000000000400000000000000000000000000000000000000000000000000000000000000000000000000000000000000000000000100008000000000000000000000000000000000000000000000000020000000000000000000800010000000000000000000010200000000000000000000000000000000000000000000000000000000000000000000000000000000000000000000000000000001000000000000000000000000000000000000002000000000000000000000000000000000000000000000000000020000000000000000080000000000000000000000000000000000000000000000000",
      "type": "0x2",
      "transactionHash": "0xcb31da87353e3f40509ed98caaa01c89c745f654991ee9c40e07c12c17b1e1b4",
      "transactionIndex": "0x1e",
      "blockHash": "0x673a5fcb83603c9d7ebb94308e874c7301978e610a18ae8ad1c06225308b61c6",
      "blockNumber": "0x1f3762a",
      "gasUsed": "0x84ab",
      "effectiveGasPrice": "0xf4284",
      "from": "0xf977f34db8a986a0a9edec3e744092c715ef793c",
      "to": "0xf988aa533c303c480d366081d265709549a765d0",
      "contractAddress": null,
      "l1BaseFeeScalar": "0x44d",
      "l1BlobBaseFee": "0x1",
      "l1BlobBaseFeeScalar": "0xa118b",
      "l1Fee": "0x51",
      "l1GasPrice": "0x9",
      "l1GasUsed": "0x640"
    },
    {
      "status": "0x1",
      "cumulativeGasUsed": "0x3cf4cc",
      "logs": [
        {
          "address": "0x6831062bb9c1fdfcb5b4618cf1462041178b8197",
          "topics": [
            "0xddf252ad1be2c89b69c2b068fc378daa952ba7f163c4a11628f55a4df523b3ef",
            "0x0000000000000000000000000000000000000000000000000000000000000000",
            "0x000000000000000000000000f977f34db8a986a0a9edec3e744092c715ef793c"
          ],
          "data": "0x000000000000000000000000000000000000000000000000000000e8d4a51000",
          "blockHash": "0x673a5fcb83603c9d7ebb94308e874c7301978e610a18ae8ad1c06225308b61c6",
          "blockNumber": "0x1f3762a",
          "blockTimestamp": "0x68fa4b34",
          "transactionHash": "0x562f86b8f9d2c53d5126ba4846abf10f8f323923b2d451e004aa345787870fa4",
          "transactionIndex": "0x1f",
          "logIndex": "0x73",
          "removed": false
        }
      ],
      "logsBloom": "0x00000000000000000000000000000000000000000000000000400000000000000000000000000000000000000000000000000000000000000000000000000000000000000000000000100008000000000000000000000000000000000000000000000000020000000000000000000800000000000000000000000010000000000000000000000000000000000000000000000000000000000000000000000000000000000000000000000000000000001000000000000000000000000000000000000002000000000000000000000000000000000000000000200000000020000000000004000000800000000000000000000000000000000000000000000000",
      "type": "0x2",
      "transactionHash": "0x562f86b8f9d2c53d5126ba4846abf10f8f323923b2d451e004aa345787870fa4",
      "transactionIndex": "0x1f",
      "blockHash": "0x673a5fcb83603c9d7ebb94308e874c7301978e610a18ae8ad1c06225308b61c6",
      "blockNumber": "0x1f3762a",
      "gasUsed": "0x847b",
      "effectiveGasPrice": "0xf4284",
      "from": "0xf977f34db8a986a0a9edec3e744092c715ef793c",
      "to": "0x6831062bb9c1fdfcb5b4618cf1462041178b8197",
      "contractAddress": null,
      "l1BaseFeeScalar": "0x44d",
      "l1BlobBaseFee": "0x1",
      "l1BlobBaseFeeScalar": "0xa118b",
      "l1Fee": "0x51",
      "l1GasPrice": "0x9",
      "l1GasUsed": "0x640"
    },
    {
      "status": "0x1",
      "cumulativeGasUsed": "0x3d7947",
      "logs": [
        {
          "address": "0x34cef345900425a72c1421d47ebadd78d7dc8772",
          "topics": [
            "0xddf252ad1be2c89b69c2b068fc378daa952ba7f163c4a11628f55a4df523b3ef",
            "0x0000000000000000000000000000000000000000000000000000000000000000",
            "0x000000000000000000000000f977f34db8a986a0a9edec3e744092c715ef793c"
          ],
          "data": "0x000000000000000000000000000000000000000000000000000000e8d4a51000",
          "blockHash": "0x673a5fcb83603c9d7ebb94308e874c7301978e610a18ae8ad1c06225308b61c6",
          "blockNumber": "0x1f3762a",
          "blockTimestamp": "0x68fa4b34",
          "transactionHash": "0xcb2031f7dd94ec091f5136278f8d893cb781b0290765477a15154236bb80eb25",
          "transactionIndex": "0x20",
          "logIndex": "0x74",
          "removed": false
        }
      ],
      "logsBloom": "0x00000000000000000000000000000000000000000000000000400000000000000000000000000000000000000000000000000000000000000000000000000000000000000000000000100008000000000000002000000000000000000000000000000000020000000000000000000800000000000000000000000010000000000000000000000000000000000000000000000000000000000000000000000000000000000000000000000008000000001000000000800000000000000000000000000002000000000000000000000000000000000000000000000000000020000000000000000000000000000000000000000000000000000000000000000000",
      "type": "0x2",
      "transactionHash": "0xcb2031f7dd94ec091f5136278f8d893cb781b0290765477a15154236bb80eb25",
      "transactionIndex": "0x20",
      "blockHash": "0x673a5fcb83603c9d7ebb94308e874c7301978e610a18ae8ad1c06225308b61c6",
      "blockNumber": "0x1f3762a",
      "gasUsed": "0x847b",
      "effectiveGasPrice": "0xf4284",
      "from": "0xf977f34db8a986a0a9edec3e744092c715ef793c",
      "to": "0x34cef345900425a72c1421d47ebadd78d7dc8772",
      "contractAddress": null,
      "l1BaseFeeScalar": "0x44d",
      "l1BlobBaseFee": "0x1",
      "l1BlobBaseFeeScalar": "0xa118b",
      "l1Fee": "0x51",
      "l1GasPrice": "0x9",
      "l1GasUsed": "0x640"
    },
    {
      "status": "0x1",
      "cumulativeGasUsed": "0x3dfdf2",
      "logs": [
        {
          "address": "0x279c4d0ad3f8a74fa266d5d75f87de93da7c9268",
          "topics": [
            "0xddf252ad1be2c89b69c2b068fc378daa952ba7f163c4a11628f55a4df523b3ef",
            "0x0000000000000000000000000000000000000000000000000000000000000000",
            "0x000000000000000000000000f977f34db8a986a0a9edec3e744092c715ef793c"
          ],
          "data": "0x00000000000000000000000000000000000000000000021e19e0c9bab2400000",
          "blockHash": "0x673a5fcb83603c9d7ebb94308e874c7301978e610a18ae8ad1c06225308b61c6",
          "blockNumber": "0x1f3762a",
          "blockTimestamp": "0x68fa4b34",
          "transactionHash": "0x8b3f197b68d994532eadc4f5b109a2bb3767340affcb88ac7746172d05e59af2",
          "transactionIndex": "0x21",
          "logIndex": "0x75",
          "removed": false
        }
      ],
      "logsBloom": "0x00000000000000000000000000000000000000000000000000400000000000000000000000000000000000000000000000000000000000000000000000000000000000000000000000100008000000000000000000000000000000000000000000000000020000000000000000000800000000000000000000000010008000000000000000000000000000000002000000000000000000000000000000000000000000000000000000000000000000001000000000000000000000000000000000000002000000000000000000000000000000000000000000000000000020000000800000000000000000000000000000000000000000000000000000000000",
      "type": "0x2",
      "transactionHash": "0x8b3f197b68d994532eadc4f5b109a2bb3767340affcb88ac7746172d05e59af2",
      "transactionIndex": "0x21",
      "blockHash": "0x673a5fcb83603c9d7ebb94308e874c7301978e610a18ae8ad1c06225308b61c6",
      "blockNumber": "0x1f3762a",
      "gasUsed": "0x84ab",
      "effectiveGasPrice": "0xf4284",
      "from": "0xf977f34db8a986a0a9edec3e744092c715ef793c",
      "to": "0x279c4d0ad3f8a74fa266d5d75f87de93da7c9268",
      "contractAddress": null,
      "l1BaseFeeScalar": "0x44d",
      "l1BlobBaseFee": "0x1",
      "l1BlobBaseFeeScalar": "0xa118b",
      "l1Fee": "0x51",
      "l1GasPrice": "0x9",
      "l1GasUsed": "0x640"
    },
    {
      "status": "0x1",
      "cumulativeGasUsed": "0x3e829d",
      "logs": [
        {
          "address": "0x616533dfee0d30085426ab025de2bee9f981b1b1",
          "topics": [
            "0xddf252ad1be2c89b69c2b068fc378daa952ba7f163c4a11628f55a4df523b3ef",
            "0x0000000000000000000000000000000000000000000000000000000000000000",
            "0x000000000000000000000000f977f34db8a986a0a9edec3e744092c715ef793c"
          ],
          "data": "0x00000000000000000000000000000000000000000000021e19e0c9bab2400000",
          "blockHash": "0x673a5fcb83603c9d7ebb94308e874c7301978e610a18ae8ad1c06225308b61c6",
          "blockNumber": "0x1f3762a",
          "blockTimestamp": "0x68fa4b34",
          "transactionHash": "0xec845244b93acd8c81deb3457c74d1630179b2788dfa9153d5337e1fbd642111",
          "transactionIndex": "0x22",
          "logIndex": "0x76",
          "removed": false
        }
      ],
      "logsBloom": "0x00000000000000000000000000000000000000000000000000400000000000000000000000000000000000000000000000000000000000000000000000000000000000000000000000100008000000000000000000000000000000000000200000000000020000000000000000000800000000000000000000000010000000000000000000000000000000000000000000000000000000040000000000000000000000000000000000000000000000001000000000000000000000000000000000000002000000000000000000000000000000000000000000000000000020000000000000000000000000000000000000000000000000000000000000000000",
      "type": "0x2",
      "transactionHash": "0xec845244b93acd8c81deb3457c74d1630179b2788dfa9153d5337e1fbd642111",
      "transactionIndex": "0x22",
      "blockHash": "0x673a5fcb83603c9d7ebb94308e874c7301978e610a18ae8ad1c06225308b61c6",
      "blockNumber": "0x1f3762a",
      "gasUsed": "0x84ab",
      "effectiveGasPrice": "0xf4284",
      "from": "0xf977f34db8a986a0a9edec3e744092c715ef793c",
      "to": "0x616533dfee0d30085426ab025de2bee9f981b1b1",
      "contractAddress": null,
      "l1BaseFeeScalar": "0x44d",
      "l1BlobBaseFee": "0x1",
      "l1BlobBaseFeeScalar": "0xa118b",
      "l1Fee": "0x51",
      "l1GasPrice": "0x9",
      "l1GasUsed": "0x640"
    },
    {
      "status": "0x1",
      "cumulativeGasUsed": "0x3f0748",
      "logs": [
        {
          "address": "0x60a08d78e8f179588cb7310fde76195e29894fed",
          "topics": [
            "0xddf252ad1be2c89b69c2b068fc378daa952ba7f163c4a11628f55a4df523b3ef",
            "0x0000000000000000000000000000000000000000000000000000000000000000",
            "0x000000000000000000000000f977f34db8a986a0a9edec3e744092c715ef793c"
          ],
          "data": "0x00000000000000000000000000000000000000000000021e19e0c9bab2400000",
          "blockHash": "0x673a5fcb83603c9d7ebb94308e874c7301978e610a18ae8ad1c06225308b61c6",
          "blockNumber": "0x1f3762a",
          "blockTimestamp": "0x68fa4b34",
          "transactionHash": "0x4ee6ee20c05a0efb6468827820dde2756f12e5ed1b4df100f34cc4e97581534c",
          "transactionIndex": "0x23",
          "logIndex": "0x77",
          "removed": false
        }
      ],
      "logsBloom": "0x00000000000000000000000000000000000000000000000000400000000000000000000000000000000000000000000000000000000000000000000000000000000000000000000000100008000000000000000040000000000000000000000000000000020000000000000000000800000000000000000000000010000000000000000000000000000000000000000000000000000000000000000000000000000000000000000000000000000000001000000000000000008000000000000000000002004000000000000000000000000000000000000000000000000020000000000000000000000000000000000000000000000000000000000000000000",
      "type": "0x2",
      "transactionHash": "0x4ee6ee20c05a0efb6468827820dde2756f12e5ed1b4df100f34cc4e97581534c",
      "transactionIndex": "0x23",
      "blockHash": "0x673a5fcb83603c9d7ebb94308e874c7301978e610a18ae8ad1c06225308b61c6",
      "blockNumber": "0x1f3762a",
      "gasUsed": "0x84ab",
      "effectiveGasPrice": "0xf4284",
      "from": "0xf977f34db8a986a0a9edec3e744092c715ef793c",
      "to": "0x60a08d78e8f179588cb7310fde76195e29894fed",
      "contractAddress": null,
      "l1BaseFeeScalar": "0x44d",
      "l1BlobBaseFee": "0x1",
      "l1BlobBaseFeeScalar": "0xa118b",
      "l1Fee": "0x51",
      "l1GasPrice": "0x9",
      "l1GasUsed": "0x640"
    },
    {
      "status": "0x1",
      "cumulativeGasUsed": "0x4c5c12",
      "logs": [
        {
          "address": "0x5c653af4ae1d25d0a7d01c3191a049c29932df26",
          "topics": [
            "0xddf252ad1be2c89b69c2b068fc378daa952ba7f163c4a11628f55a4df523b3ef",
            "0x0000000000000000000000000000000000000000000000000000000000000000",
            "0x000000000000000000000000f977f34db8a986a0a9edec3e744092c715ef793c"
          ],
          "data": "0x00000000000000000000000000000000000000000000021e19e0c9bab2400000",
          "blockHash": "0x673a5fcb83603c9d7ebb94308e874c7301978e610a18ae8ad1c06225308b61c6",
          "blockNumber": "0x1f3762a",
          "blockTimestamp": "0x68fa4b34",
          "transactionHash": "0x984ee5121d200781b32b2700698c6dd72e494aa010cffda323922b6857c6fff7",
          "transactionIndex": "0x29",
          "logIndex": "0xa4",
          "removed": false
        }
      ],
      "logsBloom": "0x00000000000000000000000000000000000000000001000000400000000000000000000000000000000000000000000000000000000000000000000000000000000000000000000000100008008000000000000000000000000000000000000000000000020000000000000000000800000000000000000000000010000000000000000000000000000000000000000000000000000000000000000000000000000000000000000000000000000000001000000000000000000000000000000000000202000000000000000000000000000000000000000000000000000020000000000000000000000000000000000000000000000000000000000000000000",
      "type": "0x2",
      "transactionHash": "0x984ee5121d200781b32b2700698c6dd72e494aa010cffda323922b6857c6fff7",
      "transactionIndex": "0x29",
      "blockHash": "0x673a5fcb83603c9d7ebb94308e874c7301978e610a18ae8ad1c06225308b61c6",
      "blockNumber": "0x1f3762a",
      "gasUsed": "0x84ab",
      "effectiveGasPrice": "0xf4284",
      "from": "0xf977f34db8a986a0a9edec3e744092c715ef793c",
      "to": "0x5c653af4ae1d25d0a7d01c3191a049c29932df26",
      "contractAddress": null,
      "l1BaseFeeScalar": "0x44d",
      "l1BlobBaseFee": "0x1",
      "l1BlobBaseFeeScalar": "0xa118b",
      "l1Fee": "0x51",
      "l1GasPrice": "0x9",
      "l1GasUsed": "0x640"
    },
    {
      "status": "0x1",
      "cumulativeGasUsed": "0x4ce0bd",
      "logs": [
        {
          "address": "0xda0851ed5751e6400b0622156923a172f0810c2f",
          "topics": [
            "0xddf252ad1be2c89b69c2b068fc378daa952ba7f163c4a11628f55a4df523b3ef",
            "0x0000000000000000000000000000000000000000000000000000000000000000",
            "0x000000000000000000000000f977f34db8a986a0a9edec3e744092c715ef793c"
          ],
          "data": "0x00000000000000000000000000000000000000000000021e19e0c9bab2400000",
          "blockHash": "0x673a5fcb83603c9d7ebb94308e874c7301978e610a18ae8ad1c06225308b61c6",
          "blockNumber": "0x1f3762a",
          "blockTimestamp": "0x68fa4b34",
          "transactionHash": "0x7d3591a616f94f9f6390bc6c03716fdc52c6613779ca799a4b6307fd1b784c74",
          "transactionIndex": "0x2a",
          "logIndex": "0xa5",
          "removed": false
        }
      ],
      "logsBloom": "0x00000000000000000000000000000002000000000000000000400000000000000000000000002000000000000000000000000000000000000000000000000000000000000000000000100008000000000000000000000000000000000000000000000000020000000000000000000800000000000000000000000010000000000000000000000000000000000000000000000000000000000000000000000010000000000000000000000000000000001000000000000000000000000000000000000002000000000000000000000000000000000000000000000000000020000000000000000000000000000000000000000000000000000000000000000000",
      "type": "0x2",
      "transactionHash": "0x7d3591a616f94f9f6390bc6c03716fdc52c6613779ca799a4b6307fd1b784c74",
      "transactionIndex": "0x2a",
      "blockHash": "0x673a5fcb83603c9d7ebb94308e874c7301978e610a18ae8ad1c06225308b61c6",
      "blockNumber": "0x1f3762a",
      "gasUsed": "0x84ab",
      "effectiveGasPrice": "0xf4284",
      "from": "0xf977f34db8a986a0a9edec3e744092c715ef793c",
      "to": "0xda0851ed5751e6400b0622156923a172f0810c2f",
      "contractAddress": null,
      "l1BaseFeeScalar": "0x44d",
      "l1BlobBaseFee": "0x1",
      "l1BlobBaseFeeScalar": "0xa118b",
      "l1Fee": "0x51",
      "l1GasPrice": "0x9",
      "l1GasUsed": "0x640"
    }
  ],
  "libraries": [],
  "pending": [],
  "returns": {},
  "timestamp": 1761233717255,
  "chain": 84532,
  "commit": "6772081"
}