{
  "transactions": [
    {
      "hash": "0x0211a966727851cfcd996abe0be6d652cd09de1f5e2b59ccc18053fa64680c65",
      "transactionType": "CALL",
      "contractName": "MockERC20",
      "contractAddress": "0x7b6caad71a1618dfb66392be6f8cb71010349dff",
      "function": "mint(address,uint256)",
      "arguments": [
        "0xcf94af0E01148356FE050C88bfB937a6Af782bDc",
        "10000000000000000000000"
      ],
      "transaction": {
        "from": "0xf977f34db8a986a0a9edec3e744092c715ef793c",
        "to": "0x7b6caad71a1618dfb66392be6f8cb71010349dff",
        "gas": "0x11382",
        "value": "0x0",
        "input": "0x40c10f19000000000000000000000000cf94af0e01148356fe050c88bfb937a6af782bdc00000000000000000000000000000000000000000000021e19e0c9bab2400000",
        "nonce": "0xf4",
        "chainId": "0x14a34"
      },
      "additionalContracts": [],
      "isFixedGasLimit": false
    },
    {
      "hash": "0xfb37a6a0b0ef21b0142d4ae3d366794a6c2449e44620685a7219cda2be23c9ca",
      "transactionType": "CALL",
      "contractName": "MockERC20",
      "contractAddress": "0x4fd923620866ee5377cb072fd8a2c449a397b264",
      "function": "mint(address,uint256)",
      "arguments": [
        "0xcf94af0E01148356FE050C88bfB937a6Af782bDc",
        "10000000000"
      ],
      "transaction": {
        "from": "0xf977f34db8a986a0a9edec3e744092c715ef793c",
        "to": "0x4fd923620866ee5377cb072fd8a2c449a397b264",
        "gas": "0xc1c0",
        "value": "0x0",
        "input": "0x40c10f19000000000000000000000000cf94af0e01148356fe050c88bfb937a6af782bdc00000000000000000000000000000000000000000000000000000002540be400",
        "nonce": "0xf5",
        "chainId": "0x14a34"
      },
      "additionalContracts": [],
      "isFixedGasLimit": false
    },
    {
      "hash": "0x2212672e3c2ffd5fd84c1d2dae83a3a51dd13d3c137f81e407f855cc6f7ae9e9",
      "transactionType": "CALL",
      "contractName": "MockERC20",
      "contractAddress": "0xf988aa533c303c480d366081d265709549a765d0",
      "function": "mint(address,uint256)",
      "arguments": [
        "0xcf94af0E01148356FE050C88bfB937a6Af782bDc",
        "10000000000000000000000"
      ],
      "transaction": {
        "from": "0xf977f34db8a986a0a9edec3e744092c715ef793c",
        "to": "0xf988aa533c303c480d366081d265709549a765d0",
        "gas": "0xc206",
        "value": "0x0",
        "input": "0x40c10f19000000000000000000000000cf94af0e01148356fe050c88bfb937a6af782bdc00000000000000000000000000000000000000000000021e19e0c9bab2400000",
        "nonce": "0xf6",
        "chainId": "0x14a34"
      },
      "additionalContracts": [],
      "isFixedGasLimit": false
    },
    {
      "hash": "0xfdbde0ce5bd464050f88921a73a64244d6ee7287deb62e04411092e586702128",
      "transactionType": "CALL",
      "contractName": "MockERC20",
      "contractAddress": "0x6831062bb9c1fdfcb5b4618cf1462041178b8197",
      "function": "mint(address,uint256)",
      "arguments": [
        "0xcf94af0E01148356FE050C88bfB937a6Af782bDc",
        "1000000000000"
      ],
      "transaction": {
        "from": "0xf977f34db8a986a0a9edec3e744092c715ef793c",
        "to": "0x6831062bb9c1fdfcb5b4618cf1462041178b8197",
        "gas": "0xc1c0",
        "value": "0x0",
        "input": "0x40c10f19000000000000000000000000cf94af0e01148356fe050c88bfb937a6af782bdc000000000000000000000000000000000000000000000000000000e8d4a51000",
        "nonce": "0xf7",
        "chainId": "0x14a34"
      },
      "additionalContracts": [],
      "isFixedGasLimit": false
    },
    {
      "hash": "0xa0e3e4c99f5692f75fe8ba13367e147582a79ffcaf80942161e3268776b9ef38",
      "transactionType": "CALL",
      "contractName": "MockERC20",
      "contractAddress": "0x34cef345900425a72c1421d47ebadd78d7dc8772",
      "function": "mint(address,uint256)",
      "arguments": [
        "0xcf94af0E01148356FE050C88bfB937a6Af782bDc",
        "1000000000000"
      ],
      "transaction": {
        "from": "0xf977f34db8a986a0a9edec3e744092c715ef793c",
        "to": "0x34cef345900425a72c1421d47ebadd78d7dc8772",
        "gas": "0xc1c0",
        "value": "0x0",
        "input": "0x40c10f19000000000000000000000000cf94af0e01148356fe050c88bfb937a6af782bdc000000000000000000000000000000000000000000000000000000e8d4a51000",
        "nonce": "0xf8",
        "chainId": "0x14a34"
      },
      "additionalContracts": [],
      "isFixedGasLimit": false
    },
    {
      "hash": "0x52406e679dd647932290b6865fdf5c60b52b297cd7d82326601aa62bd5aa4a60",
      "transactionType": "CALL",
      "contractName": "MockERC20",
      "contractAddress": "0x279c4d0ad3f8a74fa266d5d75f87de93da7c9268",
      "function": "mint(address,uint256)",
      "arguments": [
        "0xcf94af0E01148356FE050C88bfB937a6Af782bDc",
        "10000000000000000000000"
      ],
      "transaction": {
        "from": "0xf977f34db8a986a0a9edec3e744092c715ef793c",
        "to": "0x279c4d0ad3f8a74fa266d5d75f87de93da7c9268",
        "gas": "0xc206",
        "value": "0x0",
        "input": "0x40c10f19000000000000000000000000cf94af0e01148356fe050c88bfb937a6af782bdc00000000000000000000000000000000000000000000021e19e0c9bab2400000",
        "nonce": "0xf9",
        "chainId": "0x14a34"
      },
      "additionalContracts": [],
      "isFixedGasLimit": false
    },
    {
      "hash": "0xd27270f455a91ef1350a581f316c26063f8f2a5a9cebe740d79cb2b8315eb815",
      "transactionType": "CALL",
      "contractName": "MockERC20",
      "contractAddress": "0x616533dfee0d30085426ab025de2bee9f981b1b1",
      "function": "mint(address,uint256)",
      "arguments": [
        "0xcf94af0E01148356FE050C88bfB937a6Af782bDc",
        "10000000000000000000000"
      ],
      "transaction": {
        "from": "0xf977f34db8a986a0a9edec3e744092c715ef793c",
        "to": "0x616533dfee0d30085426ab025de2bee9f981b1b1",
        "gas": "0xc206",
        "value": "0x0",
        "input": "0x40c10f19000000000000000000000000cf94af0e01148356fe050c88bfb937a6af782bdc00000000000000000000000000000000000000000000021e19e0c9bab2400000",
        "nonce": "0xfa",
        "chainId": "0x14a34"
      },
      "additionalContracts": [],
      "isFixedGasLimit": false
    },
    {
      "hash": "0x4dd21ffd9f042392c1ab6e9ec06037c273eeb6f944401d70bb029be3712975c7",
      "transactionType": "CALL",
      "contractName": "MockERC20",
      "contractAddress": "0x60a08d78e8f179588cb7310fde76195e29894fed",
      "function": "mint(address,uint256)",
      "arguments": [
        "0xcf94af0E01148356FE050C88bfB937a6Af782bDc",
        "10000000000000000000000"
      ],
      "transaction": {
        "from": "0xf977f34db8a986a0a9edec3e744092c715ef793c",
        "to": "0x60a08d78e8f179588cb7310fde76195e29894fed",
        "gas": "0x11382",
        "value": "0x0",
        "input": "0x40c10f19000000000000000000000000cf94af0e01148356fe050c88bfb937a6af782bdc00000000000000000000000000000000000000000000021e19e0c9bab2400000",
        "nonce": "0xfb",
        "chainId": "0x14a34"
      },
      "additionalContracts": [],
      "isFixedGasLimit": false
    },
    {
      "hash": "0x510b04337f252277d0b28bc9f404ac0ce2aac50cc1e61844a29e666306152577",
      "transactionType": "CALL",
      "contractName": "MockERC20",
      "contractAddress": "0x5c653af4ae1d25d0a7d01c3191a049c29932df26",
      "function": "mint(address,uint256)",
      "arguments": [
        "0xcf94af0E01148356FE050C88bfB937a6Af782bDc",
        "10000000000000000000000"
      ],
      "transaction": {
        "from": "0xf977f34db8a986a0a9edec3e744092c715ef793c",
        "to": "0x5c653af4ae1d25d0a7d01c3191a049c29932df26",
        "gas": "0x11382",
        "value": "0x0",
        "input": "0x40c10f19000000000000000000000000cf94af0e01148356fe050c88bfb937a6af782bdc00000000000000000000000000000000000000000000021e19e0c9bab2400000",
        "nonce": "0xfc",
        "chainId": "0x14a34"
      },
      "additionalContracts": [],
      "isFixedGasLimit": false
    },
    {
      "hash": "0x255aacc0da914eb50c205e0eaf1ae316c868c7fafa5d32d8f058a1d15ec24531",
      "transactionType": "CALL",
      "contractName": "MockERC20",
      "contractAddress": "0xda0851ed5751e6400b0622156923a172f0810c2f",
      "function": "mint(address,uint256)",
      "arguments": [
        "0xcf94af0E01148356FE050C88bfB937a6Af782bDc",
        "10000000000000000000000"
      ],
      "transaction": {
        "from": "0xf977f34db8a986a0a9edec3e744092c715ef793c",
        "to": "0xda0851ed5751e6400b0622156923a172f0810c2f",
        "gas": "0x11382",
        "value": "0x0",
        "input": "0x40c10f19000000000000000000000000cf94af0e01148356fe050c88bfb937a6af782bdc00000000000000000000000000000000000000000000021e19e0c9bab2400000",
        "nonce": "0xfd",
        "chainId": "0x14a34"
      },
      "additionalContracts": [],
      "isFixedGasLimit": false
    }
  ],
  "receipts": [
    {
      "status": "0x1",
      "cumulativeGasUsed": "0x17bb5bb",
      "logs": [
        {
          "address": "0x7b6caad71a1618dfb66392be6f8cb71010349dff",
          "topics": [
            "0xddf252ad1be2c89b69c2b068fc378daa952ba7f163c4a11628f55a4df523b3ef",
            "0x0000000000000000000000000000000000000000000000000000000000000000",
            "0x000000000000000000000000cf94af0e01148356fe050c88bfb937a6af782bdc"
          ],
          "data": "0x00000000000000000000000000000000000000000000021e19e0c9bab2400000",
          "blockHash": "0xc1734898ec6724f8527537d192e6fe408353a3a0f1b9f6c4ad052ac379f6d05d",
          "blockNumber": "0x1f426ca",
          "blockTimestamp": "0x68fbac74",
          "transactionHash": "0x0211a966727851cfcd996abe0be6d652cd09de1f5e2b59ccc18053fa64680c65",
          "transactionIndex": "0x69",
          "logIndex": "0x26f",
          "removed": false
        }
      ],
      "logsBloom": "0x00000000080000000000000000000000000000000000000000000000000000000000000000000000000008000000000000000000000000000000000000000000000000000000000000000008000000000000000000000000000000000000000010000000020000000000000000000800000000000100000000000010000000000000000000000000000000000000000000000000000000000000000000000000000000000000000000000000000002000000000000000000000020000000000000000002000000000000000000000000000000000000000000000000000020000000000000000000000000000000000000000000000000000000000000000000",
      "type": "0x2",
      "transactionHash": "0x0211a966727851cfcd996abe0be6d652cd09de1f5e2b59ccc18053fa64680c65",
      "transactionIndex": "0x69",
      "blockHash": "0xc1734898ec6724f8527537d192e6fe408353a3a0f1b9f6c4ad052ac379f6d05d",
      "blockNumber": "0x1f426ca",
      "gasUsed": "0xc777",
      "effectiveGasPrice": "0x137cb4",
      "from": "0xf977f34db8a986a0a9edec3e744092c715ef793c",
      "to": "0x7b6caad71a1618dfb66392be6f8cb71010349dff",
      "contractAddress": null,
      "l1BaseFeeScalar": "0x44d",
      "l1BlobBaseFee": "0x1",
      "l1BlobBaseFeeScalar": "0xa118b",
      "l1Fee": "0x51",
      "l1GasPrice": "0x9",
      "l1GasUsed": "0x640"
    },
    {
      "status": "0x1",
      "cumulativeGasUsed": "0x17c3a36",
      "logs": [
        {
          "address": "0x4fd923620866ee5377cb072fd8a2c449a397b264",
          "topics": [
            "0xddf252ad1be2c89b69c2b068fc378daa952ba7f163c4a11628f55a4df523b3ef",
            "0x0000000000000000000000000000000000000000000000000000000000000000",
            "0x000000000000000000000000cf94af0e01148356fe050c88bfb937a6af782bdc"
          ],
          "data": "0x00000000000000000000000000000000000000000000000000000002540be400",
          "blockHash": "0xc1734898ec6724f8527537d192e6fe408353a3a0f1b9f6c4ad052ac379f6d05d",
          "blockNumber": "0x1f426ca",
          "blockTimestamp": "0x68fbac74",
          "transactionHash": "0xfb37a6a0b0ef21b0142d4ae3d366794a6c2449e44620685a7219cda2be23c9ca",
          "transactionIndex": "0x6a",
          "logIndex": "0x270",
          "removed": false
        }
      ],
      "logsBloom": "0x00000000000000000000000000000000000000000000000000000000000000000000000000000000000008000000000000000000000000000000000000000000000000000000000000000008000000000000010000000000000000000000000010000000020000000000000000000800000000000000000000000010000000000000000000000000000000000000000000000000000000000000000000000000000000000000000000000000000002000200000000000000000000000000000000000002000000000000000000000000000000001000000000000000000020000000000000000000000000000000000000000000000000000000000000000000",
      "type": "0x2",
      "transactionHash": "0xfb37a6a0b0ef21b0142d4ae3d366794a6c2449e44620685a7219cda2be23c9ca",
      "transactionIndex": "0x6a",
      "blockHash": "0xc1734898ec6724f8527537d192e6fe408353a3a0f1b9f6c4ad052ac379f6d05d",
      "blockNumber": "0x1f426ca",
      "gasUsed": "0x847b",
      "effectiveGasPrice": "0x137cb4",
      "from": "0xf977f34db8a986a0a9edec3e744092c715ef793c",
      "to": "0x4fd923620866ee5377cb072fd8a2c449a397b264",
      "contractAddress": null,
      "l1BaseFeeScalar": "0x44d",
      "l1BlobBaseFee": "0x1",
      "l1BlobBaseFeeScalar": "0xa118b",
      "l1Fee": "0x51",
      "l1GasPrice": "0x9",
      "l1GasUsed": "0x640"
    },
    {
      "status": "0x1",
      "cumulativeGasUsed": "0x17cbee1",
      "logs": [
        {
          "address": "0xf988aa533c303c480d366081d265709549a765d0",
          "topics": [
            "0xddf252ad1be2c89b69c2b068fc378daa952ba7f163c4a11628f55a4df523b3ef",
            "0x0000000000000000000000000000000000000000000000000000000000000000",
            "0x000000000000000000000000cf94af0e01148356fe050c88bfb937a6af782bdc"
          ],
          "data": "0x00000000000000000000000000000000000000000000021e19e0c9bab2400000",
          "blockHash": "0xc1734898ec6724f8527537d192e6fe408353a3a0f1b9f6c4ad052ac379f6d05d",
          "blockNumber": "0x1f426ca",
          "blockTimestamp": "0x68fbac74",
          "transactionHash": "0x2212672e3c2ffd5fd84c1d2dae83a3a51dd13d3c137f81e407f855cc6f7ae9e9",
          "transactionIndex": "0x6b",
          "logIndex": "0x271",
          "removed": false
        }
      ],
      "logsBloom": "0x00000000000000000000000000000000000000000000000000000000000000000000000000000000000008000000000000000000000000000000000000000000000000000000000000000008000000000000000000000000000000000000000010000000020000000000000000000800010000000000000000000010200000000000000000000000000000000000000000000000000000000000000000000000000000000000000000000000000002000000000000000000000000000000000000000002000000000000000000000000000000000000000000000000000020000000000000000080000000000000000000000000000000000000000000000000",
      "type": "0x2",
      "transactionHash": "0x2212672e3c2ffd5fd84c1d2dae83a3a51dd13d3c137f81e407f855cc6f7ae9e9",
      "transactionIndex": "0x6b",
      "blockHash": "0xc1734898ec6724f8527537d192e6fe408353a3a0f1b9f6c4ad052ac379f6d05d",
      "blockNumber": "0x1f426ca",
      "gasUsed": "0x84ab",
      "effectiveGasPrice": "0x137cb4",
      "from": "0xf977f34db8a986a0a9edec3e744092c715ef793c",
      "to": "0xf988aa533c303c480d366081d265709549a765d0",
      "contractAddress": null,
      "l1BaseFeeScalar": "0x44d",
      "l1BlobBaseFee": "0x1",
      "l1BlobBaseFeeScalar": "0xa118b",
      "l1Fee": "0x51",
      "l1GasPrice": "0x9",
      "l1GasUsed": "0x640"
    },
    {
      "status": "0x1",
      "cumulativeGasUsed": "0x17d435c",
      "logs": [
        {
          "address": "0x6831062bb9c1fdfcb5b4618cf1462041178b8197",
          "topics": [
            "0xddf252ad1be2c89b69c2b068fc378daa952ba7f163c4a11628f55a4df523b3ef",
            "0x0000000000000000000000000000000000000000000000000000000000000000",
            "0x000000000000000000000000cf94af0e01148356fe050c88bfb937a6af782bdc"
          ],
          "data": "0x000000000000000000000000000000000000000000000000000000e8d4a51000",
          "blockHash": "0xc1734898ec6724f8527537d192e6fe408353a3a0f1b9f6c4ad052ac379f6d05d",
          "blockNumber": "0x1f426ca",
          "blockTimestamp": "0x68fbac74",
          "transactionHash": "0xfdbde0ce5bd464050f88921a73a64244d6ee7287deb62e04411092e586702128",
          "transactionIndex": "0x6c",
          "logIndex": "0x272",
          "removed": false
        }
      ],
      "logsBloom": "0x00000000000000000000000000000000000000000000000000000000000000000000000000000000000008000000000000000000000000000000000000000000000000000000000000000008000000000000000000000000000000000000000010000000020000000000000000000800000000000000000000000010000000000000000000000000000000000000000000000000000000000000000000000000000000000000000000000000000002000000000000000000000000000000000000000002000000000000000000000000000000000000000000200000000020000000000004000000800000000000000000000000000000000000000000000000",
      "type": "0x2",
      "transactionHash": "0xfdbde0ce5bd464050f88921a73a64244d6ee7287deb62e04411092e586702128",
      "transactionIndex": "0x6c",
      "blockHash": "0xc1734898ec6724f8527537d192e6fe408353a3a0f1b9f6c4ad052ac379f6d05d",
      "blockNumber": "0x1f426ca",
      "gasUsed": "0x847b",
      "effectiveGasPrice": "0x137cb4",
      "from": "0xf977f34db8a986a0a9edec3e744092c715ef793c",
      "to": "0x6831062bb9c1fdfcb5b4618cf1462041178b8197",
      "contractAddress": null,
      "l1BaseFeeScalar": "0x44d",
      "l1BlobBaseFee": "0x1",
      "l1BlobBaseFeeScalar": "0xa118b",
      "l1Fee": "0x51",
      "l1GasPrice": "0x9",
      "l1GasUsed": "0x640"
    },
    {
      "status": "0x1",
      "cumulativeGasUsed": "0x4162db",
      "logs": [
        {
          "address": "0x34cef345900425a72c1421d47ebadd78d7dc8772",
          "topics": [
            "0xddf252ad1be2c89b69c2b068fc378daa952ba7f163c4a11628f55a4df523b3ef",
            "0x0000000000000000000000000000000000000000000000000000000000000000",
            "0x000000000000000000000000cf94af0e01148356fe050c88bfb937a6af782bdc"
          ],
          "data": "0x000000000000000000000000000000000000000000000000000000e8d4a51000",
          "blockHash": "0x59f661db3b988b337c340076d45fed4d70f89de3f678563dcf2d11a3091493e2",
          "blockNumber": "0x1f426cb",
          "blockTimestamp": "0x68fbac76",
          "transactionHash": "0xa0e3e4c99f5692f75fe8ba13367e147582a79ffcaf80942161e3268776b9ef38",
          "transactionIndex": "0x15",
          "logIndex": "0x7f",
          "removed": false
        }
      ],
      "logsBloom": "0x00000000000000000000000000000000000000000000000000000000000000000000000000000000000008000000000000000000000000000000000000000000000000000000000000000008000000000000002000000000000000000000000010000000020000000000000000000800000000000000000000000010000000000000000000000000000000000000000000000000000000000000000000000000000000000000000000000008000002000000000000800000000000000000000000000002000000000000000000000000000000000000000000000000000020000000000000000000000000000000000000000000000000000000000000000000",
      "type": "0x2",
      "transactionHash": "0xa0e3e4c99f5692f75fe8ba13367e147582a79ffcaf80942161e3268776b9ef38",
      "transactionIndex": "0x15",
      "blockHash": "0x59f661db3b988b337c340076d45fed4d70f89de3f678563dcf2d11a3091493e2",
      "blockNumber": "0x1f426cb",
      "gasUsed": "0x847b",
      "effectiveGasPrice": "0x137cde",
      "from": "0xf977f34db8a986a0a9edec3e744092c715ef793c",
      "to": "0x34cef345900425a72c1421d47ebadd78d7dc8772",
      "contractAddress": null,
      "l1BaseFeeScalar": "0x44d",
      "l1BlobBaseFee": "0x1",
      "l1BlobBaseFeeScalar": "0xa118b",
      "l1Fee": "0x51",
      "l1GasPrice": "0x9",
      "l1GasUsed": "0x640"
    },
    {
      "status": "0x1",
      "cumulativeGasUsed": "0x41e786",
      "logs": [
        {
          "address": "0x279c4d0ad3f8a74fa266d5d75f87de93da7c9268",
          "topics": [
            "0xddf252ad1be2c89b69c2b068fc378daa952ba7f163c4a11628f55a4df523b3ef",
            "0x0000000000000000000000000000000000000000000000000000000000000000",
            "0x000000000000000000000000cf94af0e01148356fe050c88bfb937a6af782bdc"
          ],
          "data": "0x00000000000000000000000000000000000000000000021e19e0c9bab2400000",
          "blockHash": "0x59f661db3b988b337c340076d45fed4d70f89de3f678563dcf2d11a3091493e2",
          "blockNumber": "0x1f426cb",
          "blockTimestamp": "0x68fbac76",
          "transactionHash": "0x52406e679dd647932290b6865fdf5c60b52b297cd7d82326601aa62bd5aa4a60",
          "transactionIndex": "0x16",
          "logIndex": "0x80",
          "removed": false
        }
      ],
      "logsBloom": "0x00000000000000000000000000000000000000000000000000000000000000000000000000000000000008000000000000000000000000000000000000000000000000000000000000000008000000000000000000000000000000000000000010000000020000000000000000000800000000000000000000000010008000000000000000000000000000000002000000000000000000000000000000000000000000000000000000000000000002000000000000000000000000000000000000000002000000000000000000000000000000000000000000000000000020000000800000000000000000000000000000000000000000000000000000000000",
      "type": "0x2",
      "transactionHash": "0x52406e679dd647932290b6865fdf5c60b52b297cd7d82326601aa62bd5aa4a60",
      "transactionIndex": "0x16",
      "blockHash": "0x59f661db3b988b337c340076d45fed4d70f89de3f678563dcf2d11a3091493e2",
      "blockNumber": "0x1f426cb",
      "gasUsed": "0x84ab",
      "effectiveGasPrice": "0x137cde",
      "from": "0xf977f34db8a986a0a9edec3e744092c715ef793c",
      "to": "0x279c4d0ad3f8a74fa266d5d75f87de93da7c9268",
      "contractAddress": null,
      "l1BaseFeeScalar": "0x44d",
      "l1BlobBaseFee": "0x1",
      "l1BlobBaseFeeScalar": "0xa118b",
      "l1Fee": "0x51",
      "l1GasPrice": "0x9",
      "l1GasUsed": "0x640"
    },
    {
      "status": "0x1",
      "cumulativeGasUsed": "0x426c31",
      "logs": [
        {
          "address": "0x616533dfee0d30085426ab025de2bee9f981b1b1",
          "topics": [
            "0xddf252ad1be2c89b69c2b068fc378daa952ba7f163c4a11628f55a4df523b3ef",
            "0x0000000000000000000000000000000000000000000000000000000000000000",
            "0x000000000000000000000000cf94af0e01148356fe050c88bfb937a6af782bdc"
          ],
          "data": "0x00000000000000000000000000000000000000000000021e19e0c9bab2400000",
          "blockHash": "0x59f661db3b988b337c340076d45fed4d70f89de3f678563dcf2d11a3091493e2",
          "blockNumber": "0x1f426cb",
          "blockTimestamp": "0x68fbac76",
          "transactionHash": "0xd27270f455a91ef1350a581f316c26063f8f2a5a9cebe740d79cb2b8315eb815",
          "transactionIndex": "0x17",
          "logIndex": "0x81",
          "removed": false
        }
      ],
      "logsBloom": "0x00000000000000000000000000000000000000000000000000000000000000000000000000000000000008000000000000000000000000000000000000000000000000000000000000000008000000000000000000000000000000000000200010000000020000000000000000000800000000000000000000000010000000000000000000000000000000000000000000000000000000040000000000000000000000000000000000000000000002000000000000000000000000000000000000000002000000000000000000000000000000000000000000000000000020000000000000000000000000000000000000000000000000000000000000000000",
      "type": "0x2",
      "transactionHash": "0xd27270f455a91ef1350a581f316c26063f8f2a5a9cebe740d79cb2b8315eb815",
      "transactionIndex": "0x17",
      "blockHash": "0x59f661db3b988b337c340076d45fed4d70f89de3f678563dcf2d11a3091493e2",
      "blockNumber": "0x1f426cb",
      "gasUsed": "0x84ab",
      "effectiveGasPrice": "0x137cde",
      "from": "0xf977f34db8a986a0a9edec3e744092c715ef793c",
      "to": "0x616533dfee0d30085426ab025de2bee9f981b1b1",
      "contractAddress": null,
      "l1BaseFeeScalar": "0x44d",
      "l1BlobBaseFee": "0x1",
      "l1BlobBaseFeeScalar": "0xa118b",
      "l1Fee": "0x51",
      "l1GasPrice": "0x9",
      "l1GasUsed": "0x640"
    },
    {
      "status": "0x1",
      "cumulativeGasUsed": "0x4333a8",
      "logs": [
        {
          "address": "0x60a08d78e8f179588cb7310fde76195e29894fed",
          "topics": [
            "0xddf252ad1be2c89b69c2b068fc378daa952ba7f163c4a11628f55a4df523b3ef",
            "0x0000000000000000000000000000000000000000000000000000000000000000",
            "0x000000000000000000000000cf94af0e01148356fe050c88bfb937a6af782bdc"
          ],
          "data": "0x00000000000000000000000000000000000000000000021e19e0c9bab2400000",
          "blockHash": "0x59f661db3b988b337c340076d45fed4d70f89de3f678563dcf2d11a3091493e2",
          "blockNumber": "0x1f426cb",
          "blockTimestamp": "0x68fbac76",
          "transactionHash": "0x4dd21ffd9f042392c1ab6e9ec06037c273eeb6f944401d70bb029be3712975c7",
          "transactionIndex": "0x18",
          "logIndex": "0x82",
          "removed": false
        }
      ],
      "logsBloom": "0x00000000000000000000000000000000000000000000000000000000000000000000000000000000000008000000000000000000000000000000000000000000000000000000000000000008000000000000000040000000000000000000000010000000020000000000000000000800000000000000000000000010000000000000000000000000000000000000000000000000000000000000000000000000000000000000000000000000000002000000000000000000008000000000000000000002004000000000000000000000000000000000000000000000000020000000000000000000000000000000000000000000000000000000000000000000",
      "type": "0x2",
      "transactionHash": "0x4dd21ffd9f042392c1ab6e9ec06037c273eeb6f944401d70bb029be3712975c7",
      "transactionIndex": "0x18",
      "blockHash": "0x59f661db3b988b337c340076d45fed4d70f89de3f678563dcf2d11a3091493e2",
      "blockNumber": "0x1f426cb",
      "gasUsed": "0xc777",
      "effectiveGasPrice": "0x137cde",
      "from": "0xf977f34db8a986a0a9edec3e744092c715ef793c",
      "to": "0x60a08d78e8f179588cb7310fde76195e29894fed",
      "contractAddress": null,
      "l1BaseFeeScalar": "0x44d",
      "l1BlobBaseFee": "0x1",
      "l1BlobBaseFeeScalar": "0xa118b",
      "l1Fee": "0x51",
      "l1GasPrice": "0x9",
      "l1GasUsed": "0x640"
    },
    {
      "status": "0x1",
      "cumulativeGasUsed": "0x43fb1f",
      "logs": [
        {
          "address": "0x5c653af4ae1d25d0a7d01c3191a049c29932df26",
          "topics": [
            "0xddf252ad1be2c89b69c2b068fc378daa952ba7f163c4a11628f55a4df523b3ef",
            "0x0000000000000000000000000000000000000000000000000000000000000000",
            "0x000000000000000000000000cf94af0e01148356fe050c88bfb937a6af782bdc"
          ],
          "data": "0x00000000000000000000000000000000000000000000021e19e0c9bab2400000",
          "blockHash": "0x59f661db3b988b337c340076d45fed4d70f89de3f678563dcf2d11a3091493e2",
          "blockNumber": "0x1f426cb",
          "blockTimestamp": "0x68fbac76",
          "transactionHash": "0x510b04337f252277d0b28bc9f404ac0ce2aac50cc1e61844a29e666306152577",
          "transactionIndex": "0x19",
          "logIndex": "0x83",
          "removed": false
        }
      ],
      "logsBloom": "0x00000000000000000000000000000000000000000001000000000000000000000000000000000000000008000000000000000000000000000000000000000000000000000000000000000008008000000000000000000000000000000000000010000000020000000000000000000800000000000000000000000010000000000000000000000000000000000000000000000000000000000000000000000000000000000000000000000000000002000000000000000000000000000000000000000202000000000000000000000000000000000000000000000000000020000000000000000000000000000000000000000000000000000000000000000000",
      "type": "0x2",
      "transactionHash": "0x510b04337f252277d0b28bc9f404ac0ce2aac50cc1e61844a29e666306152577",
      "transactionIndex": "0x19",
      "blockHash": "0x59f661db3b988b337c340076d45fed4d70f89de3f678563dcf2d11a3091493e2",
      "blockNumber": "0x1f426cb",
      "gasUsed": "0xc777",
      "effectiveGasPrice": "0x137cde",
      "from": "0xf977f34db8a986a0a9edec3e744092c715ef793c",
      "to": "0x5c653af4ae1d25d0a7d01c3191a049c29932df26",
      "contractAddress": null,
      "l1BaseFeeScalar": "0x44d",
      "l1BlobBaseFee": "0x1",
      "l1BlobBaseFeeScalar": "0xa118b",
      "l1Fee": "0x51",
      "l1GasPrice": "0x9",
      "l1GasUsed": "0x640"
    },
    {
      "status": "0x1",
      "cumulativeGasUsed": "0x44c296",
      "logs": [
        {
          "address": "0xda0851ed5751e6400b0622156923a172f0810c2f",
          "topics": [
            "0xddf252ad1be2c89b69c2b068fc378daa952ba7f163c4a11628f55a4df523b3ef",
            "0x0000000000000000000000000000000000000000000000000000000000000000",
            "0x000000000000000000000000cf94af0e01148356fe050c88bfb937a6af782bdc"
          ],
          "data": "0x00000000000000000000000000000000000000000000021e19e0c9bab2400000",
          "blockHash": "0x59f661db3b988b337c340076d45fed4d70f89de3f678563dcf2d11a3091493e2",
          "blockNumber": "0x1f426cb",
          "blockTimestamp": "0x68fbac76",
          "transactionHash": "0x255aacc0da914eb50c205e0eaf1ae316c868c7fafa5d32d8f058a1d15ec24531",
          "transactionIndex": "0x1a",
          "logIndex": "0x84",
          "removed": false
        }
      ],
      "logsBloom": "0x00000000000000000000000000000002000000000000000000000000000000000000000000002000000008000000000000000000000000000000000000000000000000000000000000000008000000000000000000000000000000000000000010000000020000000000000000000800000000000000000000000010000000000000000000000000000000000000000000000000000000000000000000000010000000000000000000000000000002000000000000000000000000000000000000000002000000000000000000000000000000000000000000000000000020000000000000000000000000000000000000000000000000000000000000000000",
      "type": "0x2",
      "transactionHash": "0x255aacc0da914eb50c205e0eaf1ae316c868c7fafa5d32d8f058a1d15ec24531",
      "transactionIndex": "0x1a",
      "blockHash": "0x59f661db3b988b337c340076d45fed4d70f89de3f678563dcf2d11a3091493e2",
      "blockNumber": "0x1f426cb",
      "gasUsed": "0xc777",
      "effectiveGasPrice": "0x137cde",
      "from": "0xf977f34db8a986a0a9edec3e744092c715ef793c",
      "to": "0xda0851ed5751e6400b0622156923a172f0810c2f",
      "contractAddress": null,
      "l1BaseFeeScalar": "0x44d",
      "l1BlobBaseFee": "0x1",
      "l1BlobBaseFeeScalar": "0xa118b",
      "l1Fee": "0x51",
      "l1GasPrice": "0x9",
      "l1GasUsed": "0x640"
    }
  ],
  "libraries": [],
  "pending": [],
  "returns": {},
  "timestamp": 1761324151950,
  "chain": 84532,
  "commit": "5b45bd6"
}